{
  "contractName": "SupplyChain",
  "abi": [
    {
      "constant": true,
      "inputs": [
        {
          "name": "account",
          "type": "address"
        }
      ],
      "name": "isProcessor",
      "outputs": [
        {
          "name": "",
          "type": "bool"
        }
      ],
      "payable": false,
      "stateMutability": "view",
      "type": "function",
      "signature": "0x00091988"
    },
    {
      "constant": false,
      "inputs": [
        {
          "name": "account",
          "type": "address"
        }
      ],
      "name": "addConsumer",
      "outputs": [],
      "payable": false,
      "stateMutability": "nonpayable",
      "type": "function",
      "signature": "0x112940f9"
    },
    {
      "constant": false,
      "inputs": [],
      "name": "renounceRegulator",
      "outputs": [],
      "payable": false,
      "stateMutability": "nonpayable",
      "type": "function",
      "signature": "0x1beadbe2"
    },
    {
      "constant": false,
      "inputs": [
        {
          "name": "account",
          "type": "address"
        }
      ],
      "name": "addProcessor",
      "outputs": [],
      "payable": false,
      "stateMutability": "nonpayable",
      "type": "function",
      "signature": "0x25460753"
    },
    {
      "constant": false,
      "inputs": [
        {
          "name": "account",
          "type": "address"
        }
      ],
      "name": "addFisher",
      "outputs": [],
      "payable": false,
      "stateMutability": "nonpayable",
      "type": "function",
      "signature": "0x28204a3f"
    },
    {
      "constant": false,
      "inputs": [],
      "name": "renounceProcessor",
      "outputs": [],
      "payable": false,
      "stateMutability": "nonpayable",
      "type": "function",
      "signature": "0x47fd0987"
    },
    {
      "constant": true,
      "inputs": [
        {
          "name": "account",
          "type": "address"
        }
      ],
      "name": "isRegulator",
      "outputs": [
        {
          "name": "",
          "type": "bool"
        }
      ],
      "payable": false,
      "stateMutability": "view",
      "type": "function",
      "signature": "0x54fc9169"
    },
    {
      "constant": false,
      "inputs": [],
      "name": "renounceConsumer",
      "outputs": [],
      "payable": false,
      "stateMutability": "nonpayable",
      "type": "function",
      "signature": "0x61e6982d"
    },
    {
      "constant": false,
      "inputs": [],
      "name": "renounceDistributor",
      "outputs": [],
      "payable": false,
      "stateMutability": "nonpayable",
      "type": "function",
      "signature": "0x644241db"
    },
    {
      "constant": false,
      "inputs": [
        {
          "name": "account",
          "type": "address"
        }
      ],
      "name": "addDistributor",
      "outputs": [],
      "payable": false,
      "stateMutability": "nonpayable",
      "type": "function",
      "signature": "0x7250e224"
    },
    {
      "constant": true,
      "inputs": [
        {
          "name": "account",
          "type": "address"
        }
      ],
      "name": "isConsumer",
      "outputs": [
        {
          "name": "",
          "type": "bool"
        }
      ],
      "payable": false,
      "stateMutability": "view",
      "type": "function",
      "signature": "0x834ff739"
    },
    {
      "constant": true,
      "inputs": [
        {
          "name": "account",
          "type": "address"
        }
      ],
      "name": "isDistributor",
      "outputs": [
        {
          "name": "",
          "type": "bool"
        }
      ],
      "payable": false,
      "stateMutability": "view",
      "type": "function",
      "signature": "0x8f0c86fa"
    },
    {
      "constant": false,
      "inputs": [
        {
          "name": "account",
          "type": "address"
        }
      ],
      "name": "addRegulator",
      "outputs": [],
      "payable": false,
      "stateMutability": "nonpayable",
      "type": "function",
      "signature": "0xac63f3c7"
    },
    {
      "constant": false,
      "inputs": [],
      "name": "renounceFisher",
      "outputs": [],
      "payable": false,
      "stateMutability": "nonpayable",
      "type": "function",
      "signature": "0xc156541b"
    },
    {
      "constant": true,
      "inputs": [
        {
          "name": "account",
          "type": "address"
        }
      ],
      "name": "isFisher",
      "outputs": [
        {
          "name": "",
          "type": "bool"
        }
      ],
      "payable": false,
      "stateMutability": "view",
      "type": "function",
      "signature": "0xec9e9e03"
    },
    {
      "inputs": [],
      "payable": true,
      "stateMutability": "payable",
      "type": "constructor",
      "signature": "constructor"
    },
    {
      "anonymous": false,
      "inputs": [
        {
          "indexed": false,
          "name": "upc",
          "type": "uint256"
        }
      ],
      "name": "Catched",
      "type": "event",
      "signature": "0x9e1dfcd7dcf52117f3268682c2a847062187f9d9641574b9ca0b125f54dceecf"
    },
    {
      "anonymous": false,
      "inputs": [
        {
          "indexed": false,
          "name": "upc",
          "type": "uint256"
        }
      ],
      "name": "Approved",
      "type": "event",
      "signature": "0x3ad93af63cb7967b23e4fb500b7d7d28b07516325dcf341f88bebf959d82c1cb"
    },
    {
      "anonymous": false,
      "inputs": [
        {
          "indexed": false,
          "name": "upc",
          "type": "uint256"
        }
      ],
      "name": "Landed",
      "type": "event",
      "signature": "0xbb984d104d5200d0056219a1f307d169b92fa960b7bcf971fb2579aa88108341"
    },
    {
      "anonymous": false,
      "inputs": [
        {
          "indexed": false,
          "name": "upc",
          "type": "uint256"
        }
      ],
      "name": "Processed",
      "type": "event",
      "signature": "0x5afe3b1bf87069693c075da5c22a98d63d1aef98a30dbbe538d0781a98b77ee5"
    },
    {
      "anonymous": false,
      "inputs": [
        {
          "indexed": false,
          "name": "upc",
          "type": "uint256"
        }
      ],
      "name": "Packed",
      "type": "event",
      "signature": "0x9b3b66e2380b690bae22c73ef1428fb0c91e72fe14a4b6defa13035214187aff"
    },
    {
      "anonymous": false,
      "inputs": [
        {
          "indexed": false,
          "name": "upc",
          "type": "uint256"
        }
      ],
      "name": "ForSale",
      "type": "event",
      "signature": "0xa96ae0fc3224ebd79eebfe54bd130cc9cb94416cddd1f2386115e00b72532468"
    },
    {
      "anonymous": false,
      "inputs": [
        {
          "indexed": false,
          "name": "upc",
          "type": "uint256"
        }
      ],
      "name": "Sold",
      "type": "event",
      "signature": "0x92f64ca637d023f354075a4be751b169c1a8a9ccb6d33cdd0cb3520543995727"
    },
    {
      "anonymous": false,
      "inputs": [
        {
          "indexed": true,
          "name": "account",
          "type": "address"
        }
      ],
      "name": "ConsumerAdded",
      "type": "event",
      "signature": "0x28b26e7a3d20aedbc5f8f2ebf7da671c0491723a2b78f47a097b0e46dee07142"
    },
    {
      "anonymous": false,
      "inputs": [
        {
          "indexed": true,
          "name": "account",
          "type": "address"
        }
      ],
      "name": "ConsumerRemoved",
      "type": "event",
      "signature": "0xe3f5ed5f263f1f01764a96edfc7d025f511ec5f7d180e8816908b78bcf74f098"
    },
    {
      "anonymous": false,
      "inputs": [
        {
          "indexed": true,
          "name": "account",
          "type": "address"
        }
      ],
      "name": "DistributorAdded",
      "type": "event",
      "signature": "0xddbf200aa634dc3fb81cfd68583dd1040d1c751d335e1d86b631bde3e977fea8"
    },
    {
      "anonymous": false,
      "inputs": [
        {
          "indexed": true,
          "name": "account",
          "type": "address"
        }
      ],
      "name": "DistributorRemoved",
      "type": "event",
      "signature": "0x126174f6cf49c81cdb4a9214c6b8f037bef55b4ec31e4fc776cea2a1c8a88d59"
    },
    {
      "anonymous": false,
      "inputs": [
        {
          "indexed": true,
          "name": "account",
          "type": "address"
        }
      ],
      "name": "ProcessorAdded",
      "type": "event",
      "signature": "0x05c1b3ccb9c2d46f702e834ef4d1089736770e1dc99594e4eed7d32156c58099"
    },
    {
      "anonymous": false,
      "inputs": [
        {
          "indexed": true,
          "name": "account",
          "type": "address"
        }
      ],
      "name": "ProcessorRemoved",
      "type": "event",
      "signature": "0xbcd349bbef1d62ad73e4f031a0ef1fa29c49ddcd0bac9f7a86bb4a425e032222"
    },
    {
      "anonymous": false,
      "inputs": [
        {
          "indexed": true,
          "name": "account",
          "type": "address"
        }
      ],
      "name": "RegulatorAdded",
      "type": "event",
      "signature": "0x2860b5ba44f983f8f363ee6eeb3c24cbca3096803fbdd5129b9e253f01cac076"
    },
    {
      "anonymous": false,
      "inputs": [
        {
          "indexed": true,
          "name": "account",
          "type": "address"
        }
      ],
      "name": "RegulatorRemoved",
      "type": "event",
      "signature": "0xc8ecc453f78c13ccc7596603b61935f29b99dc15bb91b91647e1ccf2469ad00a"
    },
    {
      "anonymous": false,
      "inputs": [
        {
          "indexed": true,
          "name": "account",
          "type": "address"
        }
      ],
      "name": "FisherAdded",
      "type": "event",
      "signature": "0x547eb29a995e058ef2b8b9cfdb25282a473b60f77281686d3f1d02af788fc515"
    },
    {
      "anonymous": false,
      "inputs": [
        {
          "indexed": true,
          "name": "account",
          "type": "address"
        }
      ],
      "name": "FisherRemoved",
      "type": "event",
      "signature": "0x80c102dd90d08f652af40e660d20aa132273b2f3d5a1c0f13c19a33c6d9abfd4"
    },
    {
      "constant": false,
      "inputs": [],
      "name": "kill",
      "outputs": [],
      "payable": false,
      "stateMutability": "nonpayable",
      "type": "function",
      "signature": "0x41c0e1b5"
    },
    {
      "constant": false,
      "inputs": [
        {
          "name": "_upc",
          "type": "uint256"
        },
        {
          "name": "_originFisherID",
          "type": "address"
        },
        {
          "name": "_originFisherName",
          "type": "string"
        },
        {
          "name": "_originFisherInformation",
          "type": "string"
        },
        {
          "name": "_originFisherLatitude",
          "type": "string"
        },
        {
          "name": "_originFisherLongitude",
          "type": "string"
        },
        {
          "name": "_productNotes",
          "type": "string"
        }
      ],
      "name": "catchFish",
      "outputs": [],
      "payable": false,
      "stateMutability": "nonpayable",
      "type": "function",
      "signature": "0xe09dc47c"
    },
    {
      "constant": false,
      "inputs": [
        {
          "name": "_upc",
          "type": "uint256"
        }
      ],
      "name": "approve",
      "outputs": [],
      "payable": false,
      "stateMutability": "nonpayable",
      "type": "function",
      "signature": "0xb759f954"
    },
    {
      "constant": false,
      "inputs": [
        {
          "name": "_upc",
          "type": "uint256"
        }
      ],
      "name": "landFish",
      "outputs": [],
      "payable": false,
      "stateMutability": "nonpayable",
      "type": "function",
      "signature": "0x206c009d"
    },
    {
      "constant": false,
      "inputs": [
        {
          "name": "_upc",
          "type": "uint256"
        }
      ],
      "name": "processFish",
      "outputs": [],
      "payable": false,
      "stateMutability": "nonpayable",
      "type": "function",
      "signature": "0x89455106"
    },
    {
      "constant": false,
      "inputs": [
        {
          "name": "_upc",
          "type": "uint256"
        }
      ],
      "name": "packFish",
      "outputs": [],
      "payable": false,
      "stateMutability": "nonpayable",
      "type": "function",
      "signature": "0x20ef7833"
    },
    {
      "constant": false,
      "inputs": [
        {
          "name": "_upc",
          "type": "uint256"
        },
        {
          "name": "_price",
          "type": "uint256"
        }
      ],
      "name": "sellFish",
      "outputs": [],
      "payable": false,
      "stateMutability": "nonpayable",
      "type": "function",
      "signature": "0x14885a2d"
    },
    {
      "constant": false,
      "inputs": [
        {
          "name": "_upc",
          "type": "uint256"
        }
      ],
      "name": "buyItem",
      "outputs": [],
      "payable": true,
      "stateMutability": "payable",
      "type": "function",
      "signature": "0xe7fb74c7"
    },
    {
      "constant": true,
      "inputs": [
        {
          "name": "_upc",
          "type": "uint256"
        }
      ],
      "name": "fetchItemBufferOne",
      "outputs": [
        {
          "name": "itemSKU",
          "type": "uint256"
        },
        {
          "name": "itemUPC",
          "type": "uint256"
        },
        {
          "name": "ownerID",
          "type": "address"
        },
        {
          "name": "originFisherID",
          "type": "address"
        },
        {
          "name": "originFisherName",
          "type": "string"
        },
        {
          "name": "originFisherInformation",
          "type": "string"
        },
        {
          "name": "originFisherLatitude",
          "type": "string"
        },
        {
          "name": "originFisherLongitude",
          "type": "string"
        }
      ],
      "payable": false,
      "stateMutability": "view",
      "type": "function",
      "signature": "0x77c45913"
    },
    {
      "constant": true,
      "inputs": [
        {
          "name": "_upc",
          "type": "uint256"
        }
      ],
      "name": "fetchItemBufferTwo",
      "outputs": [
        {
          "name": "itemSKU",
          "type": "uint256"
        },
        {
          "name": "itemUPC",
          "type": "uint256"
        },
        {
          "name": "productID",
          "type": "uint256"
        },
        {
          "name": "productNotes",
          "type": "string"
        },
        {
          "name": "productPrice",
          "type": "uint256"
        },
        {
          "name": "itemState",
          "type": "uint256"
        },
        {
          "name": "distributorID",
          "type": "address"
        },
        {
          "name": "consumerID",
          "type": "address"
        }
      ],
      "payable": false,
      "stateMutability": "view",
      "type": "function",
      "signature": "0x66225ff9"
    }
  ],
  "bytecode": "0x60806040526200001e33620000dd640100000000026401000000009004565b620000383362000147640100000000026401000000009004565b6200005233620001b1640100000000026401000000009004565b6200006c336200021b640100000000026401000000009004565b620000863362000285640100000000026401000000009004565b33600560006101000a81548173ffffffffffffffffffffffffffffffffffffffff021916908373ffffffffffffffffffffffffffffffffffffffff1602179055506001600781905550600160068190555062000441565b62000101816000620002ef640100000000026200243e179091906401000000009004565b8073ffffffffffffffffffffffffffffffffffffffff167f547eb29a995e058ef2b8b9cfdb25282a473b60f77281686d3f1d02af788fc51560405160405180910390a250565b6200016b816001620002ef640100000000026200243e179091906401000000009004565b8073ffffffffffffffffffffffffffffffffffffffff167f2860b5ba44f983f8f363ee6eeb3c24cbca3096803fbdd5129b9e253f01cac07660405160405180910390a250565b620001d5816002620002ef640100000000026200243e179091906401000000009004565b8073ffffffffffffffffffffffffffffffffffffffff167f05c1b3ccb9c2d46f702e834ef4d1089736770e1dc99594e4eed7d32156c5809960405160405180910390a250565b6200023f816003620002ef640100000000026200243e179091906401000000009004565b8073ffffffffffffffffffffffffffffffffffffffff167fddbf200aa634dc3fb81cfd68583dd1040d1c751d335e1d86b631bde3e977fea860405160405180910390a250565b620002a9816004620002ef640100000000026200243e179091906401000000009004565b8073ffffffffffffffffffffffffffffffffffffffff167f28b26e7a3d20aedbc5f8f2ebf7da671c0491723a2b78f47a097b0e46dee0714260405160405180910390a250565b600073ffffffffffffffffffffffffffffffffffffffff168173ffffffffffffffffffffffffffffffffffffffff1614156200032a57600080fd5b620003458282620003ae640100000000026401000000009004565b156200035057600080fd5b60018260000160008373ffffffffffffffffffffffffffffffffffffffff1673ffffffffffffffffffffffffffffffffffffffff16815260200190815260200160002060006101000a81548160ff0219169083151502179055505050565b60008073ffffffffffffffffffffffffffffffffffffffff168273ffffffffffffffffffffffffffffffffffffffff161415620003ea57600080fd5b8260000160008373ffffffffffffffffffffffffffffffffffffffff1673ffffffffffffffffffffffffffffffffffffffff16815260200190815260200160002060009054906101000a900460ff16905092915050565b61266f80620004516000396000f3fe608060405260043610610182576000357c010000000000000000000000000000000000000000000000000000000090048063644241db116100ee5780638f0c86fa116100a7578063c156541b11610081578063c156541b14610a0d578063e09dc47c14610a24578063e7fb74c714610d72578063ec9e9e0314610da057610182565b80638f0c86fa14610918578063ac63f3c714610981578063b759f954146109d257610182565b8063644241db1461046357806366225ff91461047a5780637250e224146105b757806377c4591314610608578063834ff7391461087457806389455106146108dd57610182565b80632546075311610140578063254607531461031357806328204a3f1461036457806341c0e1b5146103b557806347fd0987146103cc57806354fc9169146103e357806361e6982d1461044c57610182565b806209198814610187578063112940f9146101f057806314885a2d146102415780631beadbe214610286578063206c009d1461029d57806320ef7833146102d8575b600080fd5b34801561019357600080fd5b506101d6600480360360208110156101aa57600080fd5b81019080803573ffffffffffffffffffffffffffffffffffffffff169060200190929190505050610e09565b604051808215151515815260200191505060405180910390f35b3480156101fc57600080fd5b5061023f6004803603602081101561021357600080fd5b81019080803573ffffffffffffffffffffffffffffffffffffffff169060200190929190505050610e26565b005b34801561024d57600080fd5b506102846004803603604081101561026457600080fd5b810190808035906020019092919080359060200190929190505050610e44565b005b34801561029257600080fd5b5061029b610f66565b005b3480156102a957600080fd5b506102d6600480360360208110156102c057600080fd5b8101908080359060200190929190505050610f71565b005b3480156102e457600080fd5b50610311600480360360208110156102fb57600080fd5b810190808035906020019092919050505061103d565b005b34801561031f57600080fd5b506103626004803603602081101561033657600080fd5b81019080803573ffffffffffffffffffffffffffffffffffffffff16906020019092919050505061115e565b005b34801561037057600080fd5b506103b36004803603602081101561038757600080fd5b81019080803573ffffffffffffffffffffffffffffffffffffffff16906020019092919050505061117c565b005b3480156103c157600080fd5b506103ca61119a565b005b3480156103d857600080fd5b506103e161122d565b005b3480156103ef57600080fd5b506104326004803603602081101561040657600080fd5b81019080803573ffffffffffffffffffffffffffffffffffffffff169060200190929190505050611238565b604051808215151515815260200191505060405180910390f35b34801561045857600080fd5b50610461611255565b005b34801561046f57600080fd5b50610478611260565b005b34801561048657600080fd5b506104b36004803603602081101561049d57600080fd5b810190808035906020019092919050505061126b565b60405180898152602001888152602001878152602001806020018681526020018581526020018473ffffffffffffffffffffffffffffffffffffffff1673ffffffffffffffffffffffffffffffffffffffff1681526020018373ffffffffffffffffffffffffffffffffffffffff1673ffffffffffffffffffffffffffffffffffffffff168152602001828103825287818151815260200191508051906020019080838360005b8381101561057557808201518184015260208101905061055a565b50505050905090810190601f1680156105a25780820380516001836020036101000a031916815260200191505b50995050505050505050505060405180910390f35b3480156105c357600080fd5b50610606600480360360208110156105da57600080fd5b81019080803573ffffffffffffffffffffffffffffffffffffffff169060200190929190505050611453565b005b34801561061457600080fd5b506106416004803603602081101561062b57600080fd5b8101908080359060200190929190505050611471565b604051808981526020018881526020018773ffffffffffffffffffffffffffffffffffffffff1673ffffffffffffffffffffffffffffffffffffffff1681526020018673ffffffffffffffffffffffffffffffffffffffff1673ffffffffffffffffffffffffffffffffffffffff16815260200180602001806020018060200180602001858103855289818151815260200191508051906020019080838360005b838110156106fd5780820151818401526020810190506106e2565b50505050905090810190601f16801561072a5780820380516001836020036101000a031916815260200191505b50858103845288818151815260200191508051906020019080838360005b83811015610763578082015181840152602081019050610748565b50505050905090810190601f1680156107905780820380516001836020036101000a031916815260200191505b50858103835287818151815260200191508051906020019080838360005b838110156107c95780820151818401526020810190506107ae565b50505050905090810190601f1680156107f65780820380516001836020036101000a031916815260200191505b50858103825286818151815260200191508051906020019080838360005b8381101561082f578082015181840152602081019050610814565b50505050905090810190601f16801561085c5780820380516001836020036101000a031916815260200191505b509c5050505050505050505050505060405180910390f35b34801561088057600080fd5b506108c36004803603602081101561089757600080fd5b81019080803573ffffffffffffffffffffffffffffffffffffffff169060200190929190505050611808565b604051808215151515815260200191505060405180910390f35b3480156108e957600080fd5b506109166004803603602081101561090057600080fd5b8101908080359060200190929190505050611825565b005b34801561092457600080fd5b506109676004803603602081101561093b57600080fd5b81019080803573ffffffffffffffffffffffffffffffffffffffff169060200190929190505050611946565b604051808215151515815260200191505060405180910390f35b34801561098d57600080fd5b506109d0600480360360208110156109a457600080fd5b81019080803573ffffffffffffffffffffffffffffffffffffffff169060200190929190505050611963565b005b3480156109de57600080fd5b50610a0b600480360360208110156109f557600080fd5b8101908080359060200190929190505050611981565b005b348015610a1957600080fd5b50610a22611aa2565b005b348015610a3057600080fd5b50610d70600480360360e0811015610a4757600080fd5b8101908080359060200190929190803573ffffffffffffffffffffffffffffffffffffffff16906020019092919080359060200190640100000000811115610a8e57600080fd5b820183602082011115610aa057600080fd5b80359060200191846001830284011164010000000083111715610ac257600080fd5b91908080601f016020809104026020016040519081016040528093929190818152602001838380828437600081840152601f19601f82011690508083019250505050505050919291929080359060200190640100000000811115610b2557600080fd5b820183602082011115610b3757600080fd5b80359060200191846001830284011164010000000083111715610b5957600080fd5b91908080601f016020809104026020016040519081016040528093929190818152602001838380828437600081840152601f19601f82011690508083019250505050505050919291929080359060200190640100000000811115610bbc57600080fd5b820183602082011115610bce57600080fd5b80359060200191846001830284011164010000000083111715610bf057600080fd5b91908080601f016020809104026020016040519081016040528093929190818152602001838380828437600081840152601f19601f82011690508083019250505050505050919291929080359060200190640100000000811115610c5357600080fd5b820183602082011115610c6557600080fd5b80359060200191846001830284011164010000000083111715610c8757600080fd5b91908080601f016020809104026020016040519081016040528093929190818152602001838380828437600081840152601f19601f82011690508083019250505050505050919291929080359060200190640100000000811115610cea57600080fd5b820183602082011115610cfc57600080fd5b80359060200191846001830284011164010000000083111715610d1e57600080fd5b91908080601f016020809104026020016040519081016040528093929190818152602001838380828437600081840152601f19601f820116905080830192505050505050509192919290505050611aad565b005b610d9e60048036036020811015610d8857600080fd5b8101908080359060200190929190505050611d40565b005b348015610dac57600080fd5b50610def60048036036020811015610dc357600080fd5b81019080803573ffffffffffffffffffffffffffffffffffffffff16906020019092919050505061200b565b604051808215151515815260200191505060405180910390f35b6000610e1f82600261202890919063ffffffff16565b9050919050565b610e2f33611808565b610e3857600080fd5b610e41816120ba565b50565b8160046006811115610e5257fe5b60086000838152602001908152602001600020600b0160009054906101000a900460ff166006811115610e8157fe5b14610e8b57600080fd5b610e9433611946565b610e9d57600080fd5b3360086000858152602001908152602001600020600d0160006101000a81548173ffffffffffffffffffffffffffffffffffffffff021916908373ffffffffffffffffffffffffffffffffffffffff160217905550600560086000858152602001908152602001600020600b0160006101000a81548160ff02191690836006811115610f2557fe5b02179055507fa96ae0fc3224ebd79eebfe54bd130cc9cb94416cddd1f2386115e00b72532468836040518082815260200191505060405180910390a1505050565b610f6f33612114565b565b8060016006811115610f7f57fe5b60086000838152602001908152602001600020600b0160009054906101000a900460ff166006811115610fae57fe5b14610fb857600080fd5b610fc13361200b565b610fca57600080fd5b600260086000848152602001908152602001600020600b0160006101000a81548160ff02191690836006811115610ffd57fe5b02179055507fbb984d104d5200d0056219a1f307d169b92fa960b7bcf971fb2579aa88108341826040518082815260200191505060405180910390a15050565b806003600681111561104b57fe5b60086000838152602001908152602001600020600b0160009054906101000a900460ff16600681111561107a57fe5b1461108457600080fd5b61108d33610e09565b61109657600080fd5b3360086000848152602001908152602001600020600c0160006101000a81548173ffffffffffffffffffffffffffffffffffffffff021916908373ffffffffffffffffffffffffffffffffffffffff160217905550600460086000848152602001908152602001600020600b0160006101000a81548160ff0219169083600681111561111e57fe5b02179055507f9b3b66e2380b690bae22c73ef1428fb0c91e72fe14a4b6defa13035214187aff826040518082815260200191505060405180910390a15050565b61116733610e09565b61117057600080fd5b6111798161216e565b50565b6111853361200b565b61118e57600080fd5b611197816121c8565b50565b600560009054906101000a900473ffffffffffffffffffffffffffffffffffffffff1673ffffffffffffffffffffffffffffffffffffffff163373ffffffffffffffffffffffffffffffffffffffff16141561122b57600560009054906101000a900473ffffffffffffffffffffffffffffffffffffffff1673ffffffffffffffffffffffffffffffffffffffff16ff5b565b61123633612222565b565b600061124e82600161202890919063ffffffff16565b9050919050565b61125e3361227c565b565b611269336122d6565b565b60008060006060600080600080600860008a8152602001908152602001600020600001549750600860008a8152602001908152602001600020600101549650600860008a8152602001908152602001600020600801549550600860008a81526020019081526020016000206009018054600181600116156101000203166002900480601f01602080910402602001604051908101604052809291908181526020018280546001816001161561010002031660029004801561136d5780601f106113425761010080835404028352916020019161136d565b820191906000526020600020905b81548152906001019060200180831161135057829003601f168201915b50505050509450600860008a8152602001908152602001600020600a01549350600860008a8152602001908152602001600020600b0160009054906101000a900460ff1660068111156113bc57fe5b9250600860008a8152602001908152602001600020600d0160009054906101000a900473ffffffffffffffffffffffffffffffffffffffff169150600860008a8152602001908152602001600020600e0160009054906101000a900473ffffffffffffffffffffffffffffffffffffffff169050878787878787878797509750975097509750975097509750919395975091939597565b61145c33611946565b61146557600080fd5b61146e81612330565b50565b600080600080606080606080600860008a8152602001908152602001600020600001549750600860008a8152602001908152602001600020600101549650600860008a815260200190815260200160002060020160009054906101000a900473ffffffffffffffffffffffffffffffffffffffff169550600860008a815260200190815260200160002060030160009054906101000a900473ffffffffffffffffffffffffffffffffffffffff169450600860008a81526020019081526020016000206004018054600181600116156101000203166002900480601f0160208091040260200160405190810160405280929190818152602001828054600181600116156101000203166002900480156115cb5780601f106115a0576101008083540402835291602001916115cb565b820191906000526020600020905b8154815290600101906020018083116115ae57829003601f168201915b50505050509350600860008a81526020019081526020016000206005018054600181600116156101000203166002900480601f01602080910402602001604051908101604052809291908181526020018280546001816001161561010002031660029004801561167c5780601f106116515761010080835404028352916020019161167c565b820191906000526020600020905b81548152906001019060200180831161165f57829003601f168201915b50505050509250600860008a81526020019081526020016000206006018054600181600116156101000203166002900480601f01602080910402602001604051908101604052809291908181526020018280546001816001161561010002031660029004801561172d5780601f106117025761010080835404028352916020019161172d565b820191906000526020600020905b81548152906001019060200180831161171057829003601f168201915b50505050509150600860008a81526020019081526020016000206007018054600181600116156101000203166002900480601f0160208091040260200160405190810160405280929190818152602001828054600181600116156101000203166002900480156117de5780601f106117b3576101008083540402835291602001916117de565b820191906000526020600020905b8154815290600101906020018083116117c157829003601f168201915b50505050509050878787878787878797509750975097509750975097509750919395975091939597565b600061181e82600461202890919063ffffffff16565b9050919050565b806002600681111561183357fe5b60086000838152602001908152602001600020600b0160009054906101000a900460ff16600681111561186257fe5b1461186c57600080fd5b61187533610e09565b61187e57600080fd5b3360086000848152602001908152602001600020600c0160006101000a81548173ffffffffffffffffffffffffffffffffffffffff021916908373ffffffffffffffffffffffffffffffffffffffff160217905550600360086000848152602001908152602001600020600b0160006101000a81548160ff0219169083600681111561190657fe5b02179055507f5afe3b1bf87069693c075da5c22a98d63d1aef98a30dbbe538d0781a98b77ee5826040518082815260200191505060405180910390a15050565b600061195c82600361202890919063ffffffff16565b9050919050565b61196c33611238565b61197557600080fd5b61197e8161238a565b50565b806000600681111561198f57fe5b60086000838152602001908152602001600020600b0160009054906101000a900460ff1660068111156119be57fe5b146119c857600080fd5b6119d133611238565b6119da57600080fd5b3360086000848152602001908152602001600020600b0160016101000a81548173ffffffffffffffffffffffffffffffffffffffff021916908373ffffffffffffffffffffffffffffffffffffffff160217905550600160086000848152602001908152602001600020600b0160006101000a81548160ff02191690836006811115611a6257fe5b02179055507f3ad93af63cb7967b23e4fb500b7d7d28b07516325dcf341f88bebf959d82c1cb826040518082815260200191505060405180910390a15050565b611aab336123e4565b565b868060086000838152602001908152602001600020600101541415611ad157600080fd5b611ada3361200b565b611ae357600080fd5b600754600860008a81526020019081526020016000206000018190555087600860008a81526020019081526020016000206001018190555086600860008a815260200190815260200160002060020160006101000a81548173ffffffffffffffffffffffffffffffffffffffff021916908373ffffffffffffffffffffffffffffffffffffffff16021790555086600860008a815260200190815260200160002060030160006101000a81548173ffffffffffffffffffffffffffffffffffffffff021916908373ffffffffffffffffffffffffffffffffffffffff16021790555085600860008a81526020019081526020016000206004019080519060200190611bef929190612595565b5084600860008a81526020019081526020016000206005019080519060200190611c1a929190612595565b5083600860008a81526020019081526020016000206006019080519060200190611c45929190612595565b5082600860008a81526020019081526020016000206007019080519060200190611c70929190612595565b506007548801600860008a81526020019081526020016000206008018190555081600860008a81526020019081526020016000206009019080519060200190611cba929190612595565b506000600860008a8152602001908152602001600020600b0160006101000a81548160ff02191690836006811115611cee57fe5b02179055506001600754016007819055507f9e1dfcd7dcf52117f3268682c2a847062187f9d9641574b9ca0b125f54dceecf886040518082815260200191505060405180910390a15050505050505050565b8060056006811115611d4e57fe5b60086000838152602001908152602001600020600b0160009054906101000a900460ff166006811115611d7d57fe5b14611d8757600080fd5b60086000838152602001908152602001600020600a015480341015611dab57600080fd5b826000339050600060086000878152602001908152602001600020600a01549050816008600088815260200190815260200160002060020160006101000a81548173ffffffffffffffffffffffffffffffffffffffff021916908373ffffffffffffffffffffffffffffffffffffffff1602179055508160086000888152602001908152602001600020600e0160006101000a81548173ffffffffffffffffffffffffffffffffffffffff021916908373ffffffffffffffffffffffffffffffffffffffff160217905550600660086000888152602001908152602001600020600b0160006101000a81548160ff02191690836006811115611ea957fe5b02179055506008600087815260200190815260200160002060030160009054906101000a900473ffffffffffffffffffffffffffffffffffffffff1673ffffffffffffffffffffffffffffffffffffffff166108fc829081150290604051600060405180830381858888f19350505050158015611f2a573d6000803e3d6000fd5b507f92f64ca637d023f354075a4be751b169c1a8a9ccb6d33cdd0cb3520543995727866040518082815260200191505060405180910390a15050600060086000838152602001908152602001600020600a015490506000813403905060086000848152602001908152602001600020600e0160009054906101000a900473ffffffffffffffffffffffffffffffffffffffff1673ffffffffffffffffffffffffffffffffffffffff166108fc829081150290604051600060405180830381858888f19350505050158015612002573d6000803e3d6000fd5b50505050505050565b600061202182600061202890919063ffffffff16565b9050919050565b60008073ffffffffffffffffffffffffffffffffffffffff168273ffffffffffffffffffffffffffffffffffffffff16141561206357600080fd5b8260000160008373ffffffffffffffffffffffffffffffffffffffff1673ffffffffffffffffffffffffffffffffffffffff16815260200190815260200160002060009054906101000a900460ff16905092915050565b6120ce81600461243e90919063ffffffff16565b8073ffffffffffffffffffffffffffffffffffffffff167f28b26e7a3d20aedbc5f8f2ebf7da671c0491723a2b78f47a097b0e46dee0714260405160405180910390a250565b6121288160016124ea90919063ffffffff16565b8073ffffffffffffffffffffffffffffffffffffffff167fc8ecc453f78c13ccc7596603b61935f29b99dc15bb91b91647e1ccf2469ad00a60405160405180910390a250565b61218281600261243e90919063ffffffff16565b8073ffffffffffffffffffffffffffffffffffffffff167f05c1b3ccb9c2d46f702e834ef4d1089736770e1dc99594e4eed7d32156c5809960405160405180910390a250565b6121dc81600061243e90919063ffffffff16565b8073ffffffffffffffffffffffffffffffffffffffff167f547eb29a995e058ef2b8b9cfdb25282a473b60f77281686d3f1d02af788fc51560405160405180910390a250565b6122368160026124ea90919063ffffffff16565b8073ffffffffffffffffffffffffffffffffffffffff167fbcd349bbef1d62ad73e4f031a0ef1fa29c49ddcd0bac9f7a86bb4a425e03222260405160405180910390a250565b6122908160046124ea90919063ffffffff16565b8073ffffffffffffffffffffffffffffffffffffffff167fe3f5ed5f263f1f01764a96edfc7d025f511ec5f7d180e8816908b78bcf74f09860405160405180910390a250565b6122ea8160036124ea90919063ffffffff16565b8073ffffffffffffffffffffffffffffffffffffffff167f126174f6cf49c81cdb4a9214c6b8f037bef55b4ec31e4fc776cea2a1c8a88d5960405160405180910390a250565b61234481600361243e90919063ffffffff16565b8073ffffffffffffffffffffffffffffffffffffffff167fddbf200aa634dc3fb81cfd68583dd1040d1c751d335e1d86b631bde3e977fea860405160405180910390a250565b61239e81600161243e90919063ffffffff16565b8073ffffffffffffffffffffffffffffffffffffffff167f2860b5ba44f983f8f363ee6eeb3c24cbca3096803fbdd5129b9e253f01cac07660405160405180910390a250565b6123f88160006124ea90919063ffffffff16565b8073ffffffffffffffffffffffffffffffffffffffff167f80c102dd90d08f652af40e660d20aa132273b2f3d5a1c0f13c19a33c6d9abfd460405160405180910390a250565b600073ffffffffffffffffffffffffffffffffffffffff168173ffffffffffffffffffffffffffffffffffffffff16141561247857600080fd5b6124828282612028565b1561248c57600080fd5b60018260000160008373ffffffffffffffffffffffffffffffffffffffff1673ffffffffffffffffffffffffffffffffffffffff16815260200190815260200160002060006101000a81548160ff0219169083151502179055505050565b600073ffffffffffffffffffffffffffffffffffffffff168173ffffffffffffffffffffffffffffffffffffffff16141561252457600080fd5b61252e8282612028565b61253757600080fd5b60008260000160008373ffffffffffffffffffffffffffffffffffffffff1673ffffffffffffffffffffffffffffffffffffffff16815260200190815260200160002060006101000a81548160ff0219169083151502179055505050565b828054600181600116156101000203166002900490600052602060002090601f016020900481019282601f106125d657805160ff1916838001178555612604565b82800160010185558215612604579182015b828111156126035782518255916020019190600101906125e8565b5b5090506126119190612615565b5090565b61263791905b8082111561263357600081600090555060010161261b565b5090565b9056fea265627a7a7230582080ac1e1e6913b0998671b53c8f72d5ba780cff05c29ab36f3f924817066cb3ef64736f6c634300050a0032",
  "source": "pragma solidity >=0.5.1;\n\nimport \"../tunaaccesscontrol/FisherRole.sol\";\nimport \"../tunaaccesscontrol/RegulatorRole.sol\";\nimport \"../tunaaccesscontrol/ProcessorRole.sol\";\nimport \"../tunaaccesscontrol/DistributorRole.sol\";\nimport \"../tunaaccesscontrol/ConsumerRole.sol\";\n\n// Define a contract 'Supplychain'\ncontract SupplyChain is FisherRole, RegulatorRole, ProcessorRole, DistributorRole, ConsumerRole {\n\n\t// Define 'owner'\n\taddress payable owner;\n\n\t// Define a variable called 'upc' for Universal Product Code (UPC)\n\tuint  upc;\n\n\t// Define a variable called 'sku' for Stock Keeping Unit (SKU)\n\tuint  sku;\n\n\t// Define a public mapping 'items' that maps the UPC to an Item.\n\tmapping(uint => Item) items;\n\n\t// Define a public mapping 'itemsHistory' that maps the UPC to an array of TxHash,\n\t// that track its journey through the supply chain -- to be sent from DApp.\n\tmapping(uint => string[]) itemsHistory;\n\n\t// Define enum 'State' with the following values:\n\tenum State\n\t{\n\t\tCatched, // 0\n\t\tApproved, // 1\n\t\tLanded, // 2\n\t\tProcessed, // 3\n\t\tPacked, // 4\n\t\tForSale, // 5\n\t\tSold // 6\n\t}\n\n\tState constant defaultState = State.Catched;\n\n\t// Define a struct 'Item' with the following fields:\n\tstruct Item {\n\t\tuint sku;  // Stock Keeping Unit (SKU)\n\t\tuint upc; // Universal Product Code (UPC), generated by the Fisher, goes on the package, can be verified by the Consumer\n\t\taddress ownerID;  // Metamask-Ethereum address of the current owner as the product moves through 8 stages\n\t\taddress payable originFisherID; // Metamask-Ethereum address of the Fisher\n\t\tstring originFisherName; // Fisher Name\n\t\tstring originFisherInformation;  // Fisher Information\n\t\tstring originFisherLatitude; // Fisher Latitude\n\t\tstring originFisherLongitude;  // Fisher Longitude\n\t\tuint productID;  // Product ID potentially a combination of upc + sku\n\t\tstring productNotes; // Product Notes\n\t\tuint productPrice; // Product Price\n\t\tState itemState;  // Product State as represented in the enum above\n\t\taddress regulatorID;  // Metamask-Ethereum address of the Regulator\n\t\taddress processorID; // Metamask-Ethereum address of the Processor\n\t\taddress distributorID; // Metamask-Ethereum address of the Distributor\n\t\taddress payable consumerID; // Metamask-Ethereum address of the Consumer\n\t}\n\n\t// Define 8 events with the same 8 state values and accept 'upc' as input argument\n\tevent Catched(uint upc);\n\tevent Approved(uint upc);\n\tevent Landed(uint upc);\n\tevent Processed(uint upc);\n\tevent Packed(uint upc);\n\tevent ForSale(uint upc);\n\tevent Sold(uint upc);\n\t//\tevent Shipped(uint upc);\n\t//\tevent Received(uint upc);\n\t//\tevent Purchased(uint upc);\n\n\t// Define a modifer that checks to see if msg.sender == owner of the contract\n\tmodifier onlyOwner() {\n\t\trequire(msg.sender == owner);\n\t\t_;\n\t}\n\n\tmodifier verifyUpc(uint _upc) {\n\t\trequire(items[_upc].upc != _upc);\n\t\t_;\n\t}\n\n\t// Define a modifer that verifies the Caller\n\tmodifier verifyCaller (address _address) {\n\t\trequire(msg.sender == _address);\n\t\t_;\n\t}\n\n\t// Define a modifier that checks if the paid amount is sufficient to cover the price\n\tmodifier paidEnough(uint _price) {\n\t\trequire(msg.value >= _price);\n\t\t_;\n\t}\n\n\t// Define a modifier that checks the price and refunds the remaining balance\n\tmodifier checkValue(uint _upc) {\n\t\t_;\n\t\tuint _price = items[_upc].productPrice;\n\t\tuint amountToReturn = msg.value - _price;\n\t\titems[_upc].consumerID.transfer(amountToReturn);\n\t}\n\n\t// Define a modifier that checks if an item.state of a upc is Catched\n\tmodifier catched(uint _upc) {\n\t\trequire(items[_upc].itemState == State.Catched);\n\t\t_;\n\t}\n\n\t// Define a modifier that checks if an item.state of a upc is Approved\n\tmodifier approved(uint _upc) {\n\t\trequire(items[_upc].itemState == State.Approved);\n\t\t_;\n\t}\n\n\t// Define a modifier that checks if an item.state of a upc is Landed\n\tmodifier landed(uint _upc) {\n\t\trequire(items[_upc].itemState == State.Landed);\n\t\t_;\n\t}\n\n\t// Define a modifier that checks if an item.state of a upc is Processed\n\tmodifier processed(uint _upc) {\n\t\trequire(items[_upc].itemState == State.Processed);\n\t\t_;\n\t}\n\n\t// Define a modifier that checks if an item.state of a upc is Packed\n\tmodifier packed(uint _upc) {\n\t\trequire(items[_upc].itemState == State.Packed);\n\t\t_;\n\t}\n\n\t// Define a modifier that checks if an item.state of a upc is ForSale\n\tmodifier forSale(uint _upc) {\n\t\trequire(items[_upc].itemState == State.ForSale);\n\t\t_;\n\t}\n\n\t// Define a modifier that checks if an item.state of a upc is Sold\n\tmodifier sold(uint _upc) {\n\t\trequire(items[_upc].itemState == State.Sold);\n\t\t_;\n\t}\n\n\t// In the constructor set 'owner' to the address that instantiated the contract\n\t// and set 'sku' to 1\n\t// and set 'upc' to 1\n\tconstructor() public payable {\n\t\towner = msg.sender;\n\t\tsku = 1;\n\t\tupc = 1;\n\t}\n\n\t// Define a function 'kill' if required\n\tfunction kill() public {\n\t\tif (msg.sender == owner) {\n\t\t\tselfdestruct(owner);\n\t\t}\n\t}\n\n\t// Define a function 'catchFish' that allows a fisher to mark an item 'Catched'\n\tfunction catchFish(\n\t\tuint _upc,\n\t\taddress payable _originFisherID,\n\t\tstring memory _originFisherName,\n\t\tstring memory _originFisherInformation,\n\t\tstring memory _originFisherLatitude,\n\t\tstring memory _originFisherLongitude,\n\t\tstring memory _productNotes\n\t) verifyUpc(_upc) onlyFisher() public\n\t{\n\t\t// Add the new item as part of Catch\n\t\titems[_upc].sku = sku;\n\t\titems[_upc].upc = _upc;\n\t\titems[_upc].ownerID = _originFisherID;\n\t\titems[_upc].originFisherID = _originFisherID;\n\t\titems[_upc].originFisherName = _originFisherName;\n\t\titems[_upc].originFisherInformation = _originFisherInformation;\n\t\titems[_upc].originFisherLatitude = _originFisherLatitude;\n\t\titems[_upc].originFisherLongitude = _originFisherLongitude;\n\t\titems[_upc].productID = _upc + sku;\n\t\titems[_upc].productNotes = _productNotes;\n\t\titems[_upc].itemState = State.Catched;\n\n\t\t// Increment sku\n\t\tsku = sku + 1;\n\t\t// Emit the appropriate event\n\t\temit Catched(_upc);\n\t}\n\n\t// Define a function 'approve' that allows a regulator to mark an item 'Approved'\n\tfunction approve(uint _upc) catched(_upc) onlyRegulator() public\n\t{\n\t\titems[_upc].regulatorID = msg.sender;\n\t\titems[_upc].itemState = State.Approved;\n\n\t\temit Approved(_upc);\n\t}\n\n\t// Define a function 'landFish' that allows a fisher to mark an item 'Landed'\n\tfunction landFish(uint _upc) approved(_upc) onlyFisher() public\n\t{\n\t\titems[_upc].itemState = State.Landed;\n\n\t\temit Landed(_upc);\n\t}\n\n\t// Define a function 'processFish' that allows a processor to mark an item 'Processed'\n\tfunction processFish(uint _upc) landed(_upc) onlyProcessor() public {\n\t\titems[_upc].processorID = msg.sender;\n\t\titems[_upc].itemState = State.Processed;\n\n\t\temit Processed(_upc);\n\t}\n\n\t// Define a function 'packFish' that allows a processor to mark an item 'Packed'\n\tfunction packFish(uint _upc) processed(_upc) onlyProcessor() public {\n\t\titems[_upc].processorID = msg.sender;\n\t\titems[_upc].itemState = State.Packed;\n\n\t\temit Packed(_upc);\n\t}\n\n\t// Define a function 'sellFish' that allows a distributor to mark an item 'ForSale'\n\tfunction sellFish(uint _upc, uint _price) packed(_upc) onlyDistributor() public\n\t{\n\t\titems[_upc].distributorID = msg.sender;\n\t\titems[_upc].itemState = State.ForSale;\n\n\t\temit ForSale(_upc);\n\n\t}\n\n\t// Define a function 'buyItem' that allows the disributor to mark an item 'Sold'\n\t// Use the above defined modifiers to check if the item is available for sale, if the buyer has paid enough,\n\t// and any excess ether sent is refunded back to the buyer\n\tfunction buyItem(uint _upc) forSale(_upc) paidEnough(items[_upc].productPrice) checkValue(_upc) public payable {\n\t\taddress payable consumer = msg.sender;\n\t\tuint price = items[_upc].productPrice;\n\n\t\t// Update the appropriate fields - ownerID, itemState\n\t\titems[_upc].ownerID = consumer;\n\t\titems[_upc].consumerID = consumer;\n\t\titems[_upc].itemState = State.Sold;\n\n\t\t// Transfer money to farmer\n\t\titems[_upc].originFisherID.transfer(price);\n\n\t\t// emit the appropriate event\n\t\temit Sold(_upc);\n\t}\n\n\t// Define a function 'fetchItemBufferOne' that fetches the data\n\tfunction fetchItemBufferOne(uint _upc) public view returns\n\t(\n\t\tuint itemSKU,\n\t\tuint itemUPC,\n\t\taddress ownerID,\n\t\taddress originFisherID,\n\t\tstring memory originFisherName,\n\t\tstring memory originFisherInformation,\n\t\tstring memory originFisherLatitude,\n\t\tstring memory originFisherLongitude\n\t)\n\t{\n\t\t// Assign values to the 8 parameters\n\t\titemSKU = items[_upc].sku;\n\t\titemUPC = items[_upc].upc;\n\t\townerID = items[_upc].ownerID;\n\t\toriginFisherID = items[_upc].originFisherID;\n\t\toriginFisherName = items[_upc].originFisherName;\n\t\toriginFisherInformation = items[_upc].originFisherInformation;\n\t\toriginFisherLatitude = items[_upc].originFisherLatitude;\n\t\toriginFisherLongitude = items[_upc].originFisherLongitude;\n\n\t\treturn\n\t\t(\n\t\titemSKU,\n\t\titemUPC,\n\t\townerID,\n\t\toriginFisherID,\n\t\toriginFisherName,\n\t\toriginFisherInformation,\n\t\toriginFisherLatitude,\n\t\toriginFisherLongitude\n\t\t);\n\t}\n\n\t// Define a function 'fetchItemBufferTwo' that fetches the data\n\tfunction fetchItemBufferTwo(uint _upc) public view returns\n\t(\n\t\tuint itemSKU,\n\t\tuint itemUPC,\n\t\tuint productID,\n\t\tstring memory productNotes,\n\t\tuint productPrice,\n\t\tuint itemState,\n\t\taddress distributorID,\n\t\taddress consumerID\n\t)\n\t{\n\t\t// Assign values to the 8 parameters\n\t\titemSKU = items[_upc].sku;\n\t\titemUPC = items[_upc].upc;\n\t\tproductID = items[_upc].productID;\n\t\tproductNotes = items[_upc].productNotes;\n\t\tproductPrice = items[_upc].productPrice;\n\t\titemState = uint(items[_upc].itemState);\n\t\tdistributorID = items[_upc].distributorID;\n\t\tconsumerID = items[_upc].consumerID;\n\n\t\treturn\n\t\t(\n\t\titemSKU,\n\t\titemUPC,\n\t\tproductID,\n\t\tproductNotes,\n\t\tproductPrice,\n\t\titemState,\n\t\tdistributorID,\n\t\tconsumerID\n\t\t);\n\t}\n}\n",
  "sourcePath": "/Users/gregalmeida/Documents/Projetos/udacity/supply-chain/contracts/tunabase/SupplyChain.sol",
  "compiler": {
    "name": "solc",
    "version": "0.5.10+commit.5a6ea5b1.Emscripten.clang"
  },
  "schemaVersion": "3.0.1",
  "updatedAt": "2019-07-11T09:29:32.421Z",
  "devdoc": {
    "methods": {}
  },
  "userdoc": {
    "methods": {}
  }
}