{
  "contractName": "SupplyChain",
  "abi": [
    {
      "constant": true,
      "inputs": [
        {
          "name": "account",
          "type": "address"
        }
      ],
      "name": "isProcessor",
      "outputs": [
        {
          "name": "",
          "type": "bool"
        }
      ],
      "payable": false,
      "stateMutability": "view",
      "type": "function"
    },
    {
      "constant": false,
      "inputs": [
        {
          "name": "account",
          "type": "address"
        }
      ],
      "name": "addConsumer",
      "outputs": [],
      "payable": false,
      "stateMutability": "nonpayable",
      "type": "function"
    },
    {
      "constant": false,
      "inputs": [],
      "name": "renounceRegulator",
      "outputs": [],
      "payable": false,
      "stateMutability": "nonpayable",
      "type": "function"
    },
    {
      "constant": false,
      "inputs": [
        {
          "name": "account",
          "type": "address"
        }
      ],
      "name": "addProcessor",
      "outputs": [],
      "payable": false,
      "stateMutability": "nonpayable",
      "type": "function"
    },
    {
      "constant": false,
      "inputs": [
        {
          "name": "account",
          "type": "address"
        }
      ],
      "name": "addFisher",
      "outputs": [],
      "payable": false,
      "stateMutability": "nonpayable",
      "type": "function"
    },
    {
      "constant": false,
      "inputs": [],
      "name": "renounceProcessor",
      "outputs": [],
      "payable": false,
      "stateMutability": "nonpayable",
      "type": "function"
    },
    {
      "constant": true,
      "inputs": [
        {
          "name": "account",
          "type": "address"
        }
      ],
      "name": "isRegulator",
      "outputs": [
        {
          "name": "",
          "type": "bool"
        }
      ],
      "payable": false,
      "stateMutability": "view",
      "type": "function"
    },
    {
      "constant": false,
      "inputs": [],
      "name": "renounceConsumer",
      "outputs": [],
      "payable": false,
      "stateMutability": "nonpayable",
      "type": "function"
    },
    {
      "constant": false,
      "inputs": [],
      "name": "renounceDistributor",
      "outputs": [],
      "payable": false,
      "stateMutability": "nonpayable",
      "type": "function"
    },
    {
      "constant": false,
      "inputs": [],
      "name": "renounceOwnership",
      "outputs": [],
      "payable": false,
      "stateMutability": "nonpayable",
      "type": "function"
    },
    {
      "constant": false,
      "inputs": [
        {
          "name": "account",
          "type": "address"
        }
      ],
      "name": "addDistributor",
      "outputs": [],
      "payable": false,
      "stateMutability": "nonpayable",
      "type": "function"
    },
    {
      "constant": true,
      "inputs": [
        {
          "name": "account",
          "type": "address"
        }
      ],
      "name": "isConsumer",
      "outputs": [
        {
          "name": "",
          "type": "bool"
        }
      ],
      "payable": false,
      "stateMutability": "view",
      "type": "function"
    },
    {
      "constant": true,
      "inputs": [],
      "name": "getOwner",
      "outputs": [
        {
          "name": "",
          "type": "address"
        }
      ],
      "payable": false,
      "stateMutability": "view",
      "type": "function"
    },
    {
      "constant": true,
      "inputs": [
        {
          "name": "account",
          "type": "address"
        }
      ],
      "name": "isDistributor",
      "outputs": [
        {
          "name": "",
          "type": "bool"
        }
      ],
      "payable": false,
      "stateMutability": "view",
      "type": "function"
    },
    {
      "constant": true,
      "inputs": [],
      "name": "isOwner",
      "outputs": [
        {
          "name": "",
          "type": "bool"
        }
      ],
      "payable": false,
      "stateMutability": "view",
      "type": "function"
    },
    {
      "constant": false,
      "inputs": [
        {
          "name": "account",
          "type": "address"
        }
      ],
      "name": "addRegulator",
      "outputs": [],
      "payable": false,
      "stateMutability": "nonpayable",
      "type": "function"
    },
    {
      "constant": false,
      "inputs": [],
      "name": "renounceFisher",
      "outputs": [],
      "payable": false,
      "stateMutability": "nonpayable",
      "type": "function"
    },
    {
      "constant": true,
      "inputs": [
        {
          "name": "account",
          "type": "address"
        }
      ],
      "name": "isFisher",
      "outputs": [
        {
          "name": "",
          "type": "bool"
        }
      ],
      "payable": false,
      "stateMutability": "view",
      "type": "function"
    },
    {
      "constant": false,
      "inputs": [
        {
          "name": "newOwner",
          "type": "address"
        }
      ],
      "name": "transferOwnership",
      "outputs": [],
      "payable": false,
      "stateMutability": "nonpayable",
      "type": "function"
    },
    {
      "inputs": [],
      "payable": true,
      "stateMutability": "payable",
      "type": "constructor"
    },
    {
      "anonymous": false,
      "inputs": [
        {
          "indexed": false,
          "name": "upc",
          "type": "uint256"
        }
      ],
      "name": "Catched",
      "type": "event"
    },
    {
      "anonymous": false,
      "inputs": [
        {
          "indexed": false,
          "name": "upc",
          "type": "uint256"
        }
      ],
      "name": "Approved",
      "type": "event"
    },
    {
      "anonymous": false,
      "inputs": [
        {
          "indexed": false,
          "name": "upc",
          "type": "uint256"
        }
      ],
      "name": "Landed",
      "type": "event"
    },
    {
      "anonymous": false,
      "inputs": [
        {
          "indexed": false,
          "name": "upc",
          "type": "uint256"
        }
      ],
      "name": "Processed",
      "type": "event"
    },
    {
      "anonymous": false,
      "inputs": [
        {
          "indexed": false,
          "name": "upc",
          "type": "uint256"
        }
      ],
      "name": "Packed",
      "type": "event"
    },
    {
      "anonymous": false,
      "inputs": [
        {
          "indexed": false,
          "name": "upc",
          "type": "uint256"
        }
      ],
      "name": "ForSale",
      "type": "event"
    },
    {
      "anonymous": false,
      "inputs": [
        {
          "indexed": false,
          "name": "upc",
          "type": "uint256"
        }
      ],
      "name": "Sold",
      "type": "event"
    },
    {
      "anonymous": false,
      "inputs": [
        {
          "indexed": true,
          "name": "account",
          "type": "address"
        }
      ],
      "name": "ConsumerAdded",
      "type": "event"
    },
    {
      "anonymous": false,
      "inputs": [
        {
          "indexed": true,
          "name": "account",
          "type": "address"
        }
      ],
      "name": "ConsumerRemoved",
      "type": "event"
    },
    {
      "anonymous": false,
      "inputs": [
        {
          "indexed": true,
          "name": "account",
          "type": "address"
        }
      ],
      "name": "DistributorAdded",
      "type": "event"
    },
    {
      "anonymous": false,
      "inputs": [
        {
          "indexed": true,
          "name": "account",
          "type": "address"
        }
      ],
      "name": "DistributorRemoved",
      "type": "event"
    },
    {
      "anonymous": false,
      "inputs": [
        {
          "indexed": true,
          "name": "account",
          "type": "address"
        }
      ],
      "name": "ProcessorAdded",
      "type": "event"
    },
    {
      "anonymous": false,
      "inputs": [
        {
          "indexed": true,
          "name": "account",
          "type": "address"
        }
      ],
      "name": "ProcessorRemoved",
      "type": "event"
    },
    {
      "anonymous": false,
      "inputs": [
        {
          "indexed": true,
          "name": "account",
          "type": "address"
        }
      ],
      "name": "RegulatorAdded",
      "type": "event"
    },
    {
      "anonymous": false,
      "inputs": [
        {
          "indexed": true,
          "name": "account",
          "type": "address"
        }
      ],
      "name": "RegulatorRemoved",
      "type": "event"
    },
    {
      "anonymous": false,
      "inputs": [
        {
          "indexed": true,
          "name": "account",
          "type": "address"
        }
      ],
      "name": "FisherAdded",
      "type": "event"
    },
    {
      "anonymous": false,
      "inputs": [
        {
          "indexed": true,
          "name": "account",
          "type": "address"
        }
      ],
      "name": "FisherRemoved",
      "type": "event"
    },
    {
      "anonymous": false,
      "inputs": [
        {
          "indexed": true,
          "name": "oldOwner",
          "type": "address"
        },
        {
          "indexed": true,
          "name": "newOwner",
          "type": "address"
        }
      ],
      "name": "TransferOwnership",
      "type": "event"
    },
    {
      "constant": false,
      "inputs": [],
      "name": "kill",
      "outputs": [],
      "payable": false,
      "stateMutability": "nonpayable",
      "type": "function"
    },
    {
      "constant": false,
      "inputs": [
        {
          "name": "_upc",
          "type": "uint256"
        },
        {
          "name": "_originFisherID",
          "type": "address"
        },
        {
          "name": "_originFisherName",
          "type": "string"
        },
        {
          "name": "_originFisherInformation",
          "type": "string"
        },
        {
          "name": "_originFisherLatitude",
          "type": "string"
        },
        {
          "name": "_originFisherLongitude",
          "type": "string"
        },
        {
          "name": "_productNotes",
          "type": "string"
        }
      ],
      "name": "catchFish",
      "outputs": [],
      "payable": false,
      "stateMutability": "nonpayable",
      "type": "function"
    },
    {
      "constant": false,
      "inputs": [
        {
          "name": "_upc",
          "type": "uint256"
        }
      ],
      "name": "approve",
      "outputs": [],
      "payable": false,
      "stateMutability": "nonpayable",
      "type": "function"
    },
    {
      "constant": false,
      "inputs": [
        {
          "name": "_upc",
          "type": "uint256"
        }
      ],
      "name": "landFish",
      "outputs": [],
      "payable": false,
      "stateMutability": "nonpayable",
      "type": "function"
    },
    {
      "constant": false,
      "inputs": [
        {
          "name": "_upc",
          "type": "uint256"
        }
      ],
      "name": "processFish",
      "outputs": [],
      "payable": false,
      "stateMutability": "nonpayable",
      "type": "function"
    },
    {
      "constant": false,
      "inputs": [
        {
          "name": "_upc",
          "type": "uint256"
        }
      ],
      "name": "packFish",
      "outputs": [],
      "payable": false,
      "stateMutability": "nonpayable",
      "type": "function"
    },
    {
      "constant": false,
      "inputs": [
        {
          "name": "_upc",
          "type": "uint256"
        },
        {
          "name": "_price",
          "type": "uint256"
        }
      ],
      "name": "sellFish",
      "outputs": [],
      "payable": false,
      "stateMutability": "nonpayable",
      "type": "function"
    },
    {
      "constant": false,
      "inputs": [
        {
          "name": "_upc",
          "type": "uint256"
        }
      ],
      "name": "buyItem",
      "outputs": [],
      "payable": true,
      "stateMutability": "payable",
      "type": "function"
    },
    {
      "constant": true,
      "inputs": [
        {
          "name": "_upc",
          "type": "uint256"
        }
      ],
      "name": "fetchItemBufferOne",
      "outputs": [
        {
          "name": "itemSKU",
          "type": "uint256"
        },
        {
          "name": "itemUPC",
          "type": "uint256"
        },
        {
          "name": "ownerID",
          "type": "address"
        },
        {
          "name": "originFisherID",
          "type": "address"
        },
        {
          "name": "originFisherName",
          "type": "string"
        },
        {
          "name": "originFisherInformation",
          "type": "string"
        },
        {
          "name": "originFisherLatitude",
          "type": "string"
        },
        {
          "name": "originFisherLongitude",
          "type": "string"
        }
      ],
      "payable": false,
      "stateMutability": "view",
      "type": "function"
    },
    {
      "constant": true,
      "inputs": [
        {
          "name": "_upc",
          "type": "uint256"
        }
      ],
      "name": "fetchItemBufferTwo",
      "outputs": [
        {
          "name": "itemSKU",
          "type": "uint256"
        },
        {
          "name": "itemUPC",
          "type": "uint256"
        },
        {
          "name": "productID",
          "type": "uint256"
        },
        {
          "name": "productNotes",
          "type": "string"
        },
        {
          "name": "productPrice",
          "type": "uint256"
        },
        {
          "name": "itemState",
          "type": "uint256"
        },
        {
          "name": "distributorID",
          "type": "address"
        },
        {
          "name": "consumerID",
          "type": "address"
        },
        {
          "name": "regulatorID",
          "type": "address"
        },
        {
          "name": "processorID",
          "type": "address"
        }
      ],
      "payable": false,
      "stateMutability": "view",
      "type": "function"
    }
  ],
  "bytecode": "0x6080604052336000806101000a81548173ffffffffffffffffffffffffffffffffffffffff021916908373ffffffffffffffffffffffffffffffffffffffff1602179055506000809054906101000a900473ffffffffffffffffffffffffffffffffffffffff1673ffffffffffffffffffffffffffffffffffffffff16600073ffffffffffffffffffffffffffffffffffffffff167f5c486528ec3e3f0ea91181cff8116f02bfa350e03b8b6f12e00765adbb5af85c60405160405180910390a3620000d1336200016c60201b60201c565b620000e233620001cd60201b60201c565b620000f3336200022e60201b60201c565b62000104336200028f60201b60201c565b6200011533620002f060201b60201c565b33600660006101000a81548173ffffffffffffffffffffffffffffffffffffffff021916908373ffffffffffffffffffffffffffffffffffffffff16021790555060016008819055506001600781905550620005d5565b620001878160016200035160201b620030841790919060201c565b8073ffffffffffffffffffffffffffffffffffffffff167f547eb29a995e058ef2b8b9cfdb25282a473b60f77281686d3f1d02af788fc51560405160405180910390a250565b620001e88160026200035160201b620030841790919060201c565b8073ffffffffffffffffffffffffffffffffffffffff167f2860b5ba44f983f8f363ee6eeb3c24cbca3096803fbdd5129b9e253f01cac07660405160405180910390a250565b620002498160036200035160201b620030841790919060201c565b8073ffffffffffffffffffffffffffffffffffffffff167f05c1b3ccb9c2d46f702e834ef4d1089736770e1dc99594e4eed7d32156c5809960405160405180910390a250565b620002aa8160046200035160201b620030841790919060201c565b8073ffffffffffffffffffffffffffffffffffffffff167fddbf200aa634dc3fb81cfd68583dd1040d1c751d335e1d86b631bde3e977fea860405160405180910390a250565b6200030b8160056200035160201b620030841790919060201c565b8073ffffffffffffffffffffffffffffffffffffffff167f28b26e7a3d20aedbc5f8f2ebf7da671c0491723a2b78f47a097b0e46dee0714260405160405180910390a250565b600073ffffffffffffffffffffffffffffffffffffffff168173ffffffffffffffffffffffffffffffffffffffff161415620003f5576040517f08c379a000000000000000000000000000000000000000000000000000000000815260040180806020018281038252600f8152602001807f496e76616c69642041646472657373000000000000000000000000000000000081525060200191505060405180910390fd5b620004078282620004d960201b60201c565b156200047b576040517f08c379a00000000000000000000000000000000000000000000000000000000081526004018080602001828103825260168152602001807f4163636f756e7420616c7265616479206578697374730000000000000000000081525060200191505060405180910390fd5b60018260000160008373ffffffffffffffffffffffffffffffffffffffff1673ffffffffffffffffffffffffffffffffffffffff16815260200190815260200160002060006101000a81548160ff0219169083151502179055505050565b60008073ffffffffffffffffffffffffffffffffffffffff168273ffffffffffffffffffffffffffffffffffffffff1614156200057e576040517f08c379a000000000000000000000000000000000000000000000000000000000815260040180806020018281038252600f8152602001807f496e76616c69642041646472657373000000000000000000000000000000000081525060200191505060405180910390fd5b8260000160008373ffffffffffffffffffffffffffffffffffffffff1673ffffffffffffffffffffffffffffffffffffffff16815260200190815260200160002060009054906101000a900460ff16905092915050565b61357f80620005e56000396000f3fe6080604052600436106101c15760003560e01c8063715018a6116100f75780638f32d59b11610095578063e09dc47c11610064578063e09dc47c14610b66578063e7fb74c714610eb4578063ec9e9e0314610ee2578063f2fde38b14610f4b576101c1565b80638f32d59b14610a94578063ac63f3c714610ac3578063b759f95414610b14578063c156541b14610b4f576101c1565b8063834ff739116100d1578063834ff73914610930578063893d20e81461099957806389455106146109f05780638f0c86fa14610a2b576101c1565b8063715018a61461065c5780637250e2241461067357806377c45913146106c4576101c1565b806328204a3f1161016457806354fc91691161013e57806354fc91691461042257806361e6982d1461048b578063644241db146104a257806366225ff9146104b9576101c1565b806328204a3f146103a357806341c0e1b5146103f457806347fd09871461040b576101c1565b80631beadbe2116101a05780631beadbe2146102c5578063206c009d146102dc57806320ef7833146103175780632546075314610352576101c1565b8062091988146101c6578063112940f91461022f57806314885a2d14610280575b600080fd5b3480156101d257600080fd5b50610215600480360360208110156101e957600080fd5b81019080803573ffffffffffffffffffffffffffffffffffffffff169060200190929190505050610f9c565b604051808215151515815260200191505060405180910390f35b34801561023b57600080fd5b5061027e6004803603602081101561025257600080fd5b81019080803573ffffffffffffffffffffffffffffffffffffffff169060200190929190505050610fb9565b005b34801561028c57600080fd5b506102c3600480360360408110156102a357600080fd5b810190808035906020019092919080359060200190929190505050611023565b005b3480156102d157600080fd5b506102da611215565b005b3480156102e857600080fd5b50610315600480360360208110156102ff57600080fd5b8101908080359060200190929190505050611220565b005b34801561032357600080fd5b506103506004803603602081101561033a57600080fd5b81019080803590602001909291905050506113a1565b005b34801561035e57600080fd5b506103a16004803603602081101561037557600080fd5b81019080803573ffffffffffffffffffffffffffffffffffffffff169060200190929190505050611577565b005b3480156103af57600080fd5b506103f2600480360360208110156103c657600080fd5b81019080803573ffffffffffffffffffffffffffffffffffffffff1690602001909291905050506115e1565b005b34801561040057600080fd5b5061040961164b565b005b34801561041757600080fd5b506104206116de565b005b34801561042e57600080fd5b506104716004803603602081101561044557600080fd5b81019080803573ffffffffffffffffffffffffffffffffffffffff1690602001909291905050506116e9565b604051808215151515815260200191505060405180910390f35b34801561049757600080fd5b506104a0611706565b005b3480156104ae57600080fd5b506104b7611711565b005b3480156104c557600080fd5b506104f2600480360360208110156104dc57600080fd5b810190808035906020019092919050505061171c565b604051808b81526020018a8152602001898152602001806020018881526020018781526020018673ffffffffffffffffffffffffffffffffffffffff1673ffffffffffffffffffffffffffffffffffffffff1681526020018573ffffffffffffffffffffffffffffffffffffffff1673ffffffffffffffffffffffffffffffffffffffff1681526020018473ffffffffffffffffffffffffffffffffffffffff1673ffffffffffffffffffffffffffffffffffffffff1681526020018373ffffffffffffffffffffffffffffffffffffffff1673ffffffffffffffffffffffffffffffffffffffff168152602001828103825289818151815260200191508051906020019080838360005b838110156106185780820151818401526020810190506105fd565b50505050905090810190601f1680156106455780820380516001836020036101000a031916815260200191505b509b50505050505050505050505060405180910390f35b34801561066857600080fd5b50610671611981565b005b34801561067f57600080fd5b506106c26004803603602081101561069657600080fd5b81019080803573ffffffffffffffffffffffffffffffffffffffff169060200190929190505050611ae6565b005b3480156106d057600080fd5b506106fd600480360360208110156106e757600080fd5b8101908080359060200190929190505050611b50565b604051808981526020018881526020018773ffffffffffffffffffffffffffffffffffffffff1673ffffffffffffffffffffffffffffffffffffffff1681526020018673ffffffffffffffffffffffffffffffffffffffff1673ffffffffffffffffffffffffffffffffffffffff16815260200180602001806020018060200180602001858103855289818151815260200191508051906020019080838360005b838110156107b957808201518184015260208101905061079e565b50505050905090810190601f1680156107e65780820380516001836020036101000a031916815260200191505b50858103845288818151815260200191508051906020019080838360005b8381101561081f578082015181840152602081019050610804565b50505050905090810190601f16801561084c5780820380516001836020036101000a031916815260200191505b50858103835287818151815260200191508051906020019080838360005b8381101561088557808201518184015260208101905061086a565b50505050905090810190601f1680156108b25780820380516001836020036101000a031916815260200191505b50858103825286818151815260200191508051906020019080838360005b838110156108eb5780820151818401526020810190506108d0565b50505050905090810190601f1680156109185780820380516001836020036101000a031916815260200191505b509c5050505050505050505050505060405180910390f35b34801561093c57600080fd5b5061097f6004803603602081101561095357600080fd5b81019080803573ffffffffffffffffffffffffffffffffffffffff169060200190929190505050611ee7565b604051808215151515815260200191505060405180910390f35b3480156109a557600080fd5b506109ae611f04565b604051808273ffffffffffffffffffffffffffffffffffffffff1673ffffffffffffffffffffffffffffffffffffffff16815260200191505060405180910390f35b3480156109fc57600080fd5b50610a2960048036036020811015610a1357600080fd5b8101908080359060200190929190505050611f2d565b005b348015610a3757600080fd5b50610a7a60048036036020811015610a4e57600080fd5b81019080803573ffffffffffffffffffffffffffffffffffffffff169060200190929190505050612103565b604051808215151515815260200191505060405180910390f35b348015610aa057600080fd5b50610aa9612120565b604051808215151515815260200191505060405180910390f35b348015610acf57600080fd5b50610b1260048036036020811015610ae657600080fd5b81019080803573ffffffffffffffffffffffffffffffffffffffff169060200190929190505050612177565b005b348015610b2057600080fd5b50610b4d60048036036020811015610b3757600080fd5b81019080803590602001909291905050506121e1565b005b348015610b5b57600080fd5b50610b646123b7565b005b348015610b7257600080fd5b50610eb2600480360360e0811015610b8957600080fd5b8101908080359060200190929190803573ffffffffffffffffffffffffffffffffffffffff16906020019092919080359060200190640100000000811115610bd057600080fd5b820183602082011115610be257600080fd5b80359060200191846001830284011164010000000083111715610c0457600080fd5b91908080601f016020809104026020016040519081016040528093929190818152602001838380828437600081840152601f19601f82011690508083019250505050505050919291929080359060200190640100000000811115610c6757600080fd5b820183602082011115610c7957600080fd5b80359060200191846001830284011164010000000083111715610c9b57600080fd5b91908080601f016020809104026020016040519081016040528093929190818152602001838380828437600081840152601f19601f82011690508083019250505050505050919291929080359060200190640100000000811115610cfe57600080fd5b820183602082011115610d1057600080fd5b80359060200191846001830284011164010000000083111715610d3257600080fd5b91908080601f016020809104026020016040519081016040528093929190818152602001838380828437600081840152601f19601f82011690508083019250505050505050919291929080359060200190640100000000811115610d9557600080fd5b820183602082011115610da757600080fd5b80359060200191846001830284011164010000000083111715610dc957600080fd5b91908080601f016020809104026020016040519081016040528093929190818152602001838380828437600081840152601f19601f82011690508083019250505050505050919291929080359060200190640100000000811115610e2c57600080fd5b820183602082011115610e3e57600080fd5b80359060200191846001830284011164010000000083111715610e6057600080fd5b91908080601f016020809104026020016040519081016040528093929190818152602001838380828437600081840152601f19601f8201169050808301925050505050505091929192905050506123c2565b005b610ee060048036036020811015610eca57600080fd5b81019080803590602001909291905050506126a1565b005b348015610eee57600080fd5b50610f3160048036036020811015610f0557600080fd5b81019080803573ffffffffffffffffffffffffffffffffffffffff169060200190929190505050612a3e565b604051808215151515815260200191505060405180910390f35b348015610f5757600080fd5b50610f9a60048036036020811015610f6e57600080fd5b81019080803573ffffffffffffffffffffffffffffffffffffffff169060200190929190505050612a5b565b005b6000610fb2826003612b0d90919063ffffffff16565b9050919050565b610fc233611ee7565b611017576040517f08c379a00000000000000000000000000000000000000000000000000000000081526004018080602001828103825260318152602001806134256031913960400191505060405180910390fd5b61102081612c08565b50565b816004600681111561103157fe5b60096000838152602001908152602001600020600b0160009054906101000a900460ff16600681111561106057fe5b146110d3576040517f08c379a000000000000000000000000000000000000000000000000000000000815260040180806020018281038252600a8152602001807f4e6f74207061636b65640000000000000000000000000000000000000000000081525060200191505060405180910390fd5b6110dc33612103565b611131576040517f08c379a00000000000000000000000000000000000000000000000000000000081526004018080602001828103825260348152602001806134e56034913960400191505060405180910390fd5b3360096000858152602001908152602001600020600d0160006101000a81548173ffffffffffffffffffffffffffffffffffffffff021916908373ffffffffffffffffffffffffffffffffffffffff1602179055508160096000858152602001908152602001600020600a0181905550600560096000858152602001908152602001600020600b0160006101000a81548160ff021916908360068111156111d457fe5b02179055507fa96ae0fc3224ebd79eebfe54bd130cc9cb94416cddd1f2386115e00b72532468836040518082815260200191505060405180910390a1505050565b61121e33612c62565b565b806001600681111561122e57fe5b60096000838152602001908152602001600020600b0160009054906101000a900460ff16600681111561125d57fe5b146112d0576040517f08c379a000000000000000000000000000000000000000000000000000000000815260040180806020018281038252600c8152602001807f4e6f7420617070726f766564000000000000000000000000000000000000000081525060200191505060405180910390fd5b6112d933612a3e565b61132e576040517f08c379a000000000000000000000000000000000000000000000000000000000815260040180806020018281038252602f815260200180613488602f913960400191505060405180910390fd5b600260096000848152602001908152602001600020600b0160006101000a81548160ff0219169083600681111561136157fe5b02179055507fbb984d104d5200d0056219a1f307d169b92fa960b7bcf971fb2579aa88108341826040518082815260200191505060405180910390a15050565b80600360068111156113af57fe5b60096000838152602001908152602001600020600b0160009054906101000a900460ff1660068111156113de57fe5b14611451576040517f08c379a000000000000000000000000000000000000000000000000000000000815260040180806020018281038252600d8152602001807f4e6f742070726f6365737365640000000000000000000000000000000000000081525060200191505060405180910390fd5b61145a33610f9c565b6114af576040517f08c379a00000000000000000000000000000000000000000000000000000000081526004018080602001828103825260328152602001806134566032913960400191505060405180910390fd5b3360096000848152602001908152602001600020600c0160006101000a81548173ffffffffffffffffffffffffffffffffffffffff021916908373ffffffffffffffffffffffffffffffffffffffff160217905550600460096000848152602001908152602001600020600b0160006101000a81548160ff0219169083600681111561153757fe5b02179055507f9b3b66e2380b690bae22c73ef1428fb0c91e72fe14a4b6defa13035214187aff826040518082815260200191505060405180910390a15050565b61158033610f9c565b6115d5576040517f08c379a00000000000000000000000000000000000000000000000000000000081526004018080602001828103825260328152602001806134566032913960400191505060405180910390fd5b6115de81612cbc565b50565b6115ea33612a3e565b61163f576040517f08c379a000000000000000000000000000000000000000000000000000000000815260040180806020018281038252602f815260200180613488602f913960400191505060405180910390fd5b61164881612d16565b50565b600660009054906101000a900473ffffffffffffffffffffffffffffffffffffffff1673ffffffffffffffffffffffffffffffffffffffff163373ffffffffffffffffffffffffffffffffffffffff1614156116dc57600660009054906101000a900473ffffffffffffffffffffffffffffffffffffffff1673ffffffffffffffffffffffffffffffffffffffff16ff5b565b6116e733612d70565b565b60006116ff826002612b0d90919063ffffffff16565b9050919050565b61170f33612dca565b565b61171a33612e24565b565b60008060006060600080600080600080600960008c8152602001908152602001600020600001549950600960008c8152602001908152602001600020600101549850600960008c8152602001908152602001600020600801549750600960008c81526020019081526020016000206009018054600181600116156101000203166002900480601f0160208091040260200160405190810160405280929190818152602001828054600181600116156101000203166002900480156118215780601f106117f657610100808354040283529160200191611821565b820191906000526020600020905b81548152906001019060200180831161180457829003601f168201915b50505050509650600960008c8152602001908152602001600020600a01549550600960008c8152602001908152602001600020600b0160009054906101000a900460ff16600681111561187057fe5b9450600960008c8152602001908152602001600020600d0160009054906101000a900473ffffffffffffffffffffffffffffffffffffffff169350600960008c8152602001908152602001600020600e0160009054906101000a900473ffffffffffffffffffffffffffffffffffffffff169250600960008c8152602001908152602001600020600b0160019054906101000a900473ffffffffffffffffffffffffffffffffffffffff169150600960008c8152602001908152602001600020600c0160009054906101000a900473ffffffffffffffffffffffffffffffffffffffff1690508989898989898989898999509950995099509950995099509950995099509193959799509193959799565b600660009054906101000a900473ffffffffffffffffffffffffffffffffffffffff1673ffffffffffffffffffffffffffffffffffffffff163373ffffffffffffffffffffffffffffffffffffffff1614611a27576040517f08c379a000000000000000000000000000000000000000000000000000000000815260040180806020018281038252602e8152602001806134b7602e913960400191505060405180910390fd5b600073ffffffffffffffffffffffffffffffffffffffff166000809054906101000a900473ffffffffffffffffffffffffffffffffffffffff1673ffffffffffffffffffffffffffffffffffffffff167f5c486528ec3e3f0ea91181cff8116f02bfa350e03b8b6f12e00765adbb5af85c60405160405180910390a360008060006101000a81548173ffffffffffffffffffffffffffffffffffffffff021916908373ffffffffffffffffffffffffffffffffffffffff160217905550565b611aef33612103565b611b44576040517f08c379a00000000000000000000000000000000000000000000000000000000081526004018080602001828103825260348152602001806134e56034913960400191505060405180910390fd5b611b4d81612e7e565b50565b600080600080606080606080600960008a8152602001908152602001600020600001549750600960008a8152602001908152602001600020600101549650600960008a815260200190815260200160002060020160009054906101000a900473ffffffffffffffffffffffffffffffffffffffff169550600960008a815260200190815260200160002060030160009054906101000a900473ffffffffffffffffffffffffffffffffffffffff169450600960008a81526020019081526020016000206004018054600181600116156101000203166002900480601f016020809104026020016040519081016040528092919081815260200182805460018160011615610100020316600290048015611caa5780601f10611c7f57610100808354040283529160200191611caa565b820191906000526020600020905b815481529060010190602001808311611c8d57829003601f168201915b50505050509350600960008a81526020019081526020016000206005018054600181600116156101000203166002900480601f016020809104026020016040519081016040528092919081815260200182805460018160011615610100020316600290048015611d5b5780601f10611d3057610100808354040283529160200191611d5b565b820191906000526020600020905b815481529060010190602001808311611d3e57829003601f168201915b50505050509250600960008a81526020019081526020016000206006018054600181600116156101000203166002900480601f016020809104026020016040519081016040528092919081815260200182805460018160011615610100020316600290048015611e0c5780601f10611de157610100808354040283529160200191611e0c565b820191906000526020600020905b815481529060010190602001808311611def57829003601f168201915b50505050509150600960008a81526020019081526020016000206007018054600181600116156101000203166002900480601f016020809104026020016040519081016040528092919081815260200182805460018160011615610100020316600290048015611ebd5780601f10611e9257610100808354040283529160200191611ebd565b820191906000526020600020905b815481529060010190602001808311611ea057829003601f168201915b50505050509050878787878787878797509750975097509750975097509750919395975091939597565b6000611efd826005612b0d90919063ffffffff16565b9050919050565b60008060009054906101000a900473ffffffffffffffffffffffffffffffffffffffff16905090565b8060026006811115611f3b57fe5b60096000838152602001908152602001600020600b0160009054906101000a900460ff166006811115611f6a57fe5b14611fdd576040517f08c379a000000000000000000000000000000000000000000000000000000000815260040180806020018281038252600a8152602001807f4e6f74206c616e6465640000000000000000000000000000000000000000000081525060200191505060405180910390fd5b611fe633610f9c565b61203b576040517f08c379a00000000000000000000000000000000000000000000000000000000081526004018080602001828103825260328152602001806134566032913960400191505060405180910390fd5b3360096000848152602001908152602001600020600c0160006101000a81548173ffffffffffffffffffffffffffffffffffffffff021916908373ffffffffffffffffffffffffffffffffffffffff160217905550600360096000848152602001908152602001600020600b0160006101000a81548160ff021916908360068111156120c357fe5b02179055507f5afe3b1bf87069693c075da5c22a98d63d1aef98a30dbbe538d0781a98b77ee5826040518082815260200191505060405180910390a15050565b6000612119826004612b0d90919063ffffffff16565b9050919050565b60008060009054906101000a900473ffffffffffffffffffffffffffffffffffffffff1673ffffffffffffffffffffffffffffffffffffffff163373ffffffffffffffffffffffffffffffffffffffff1614905090565b612180336116e9565b6121d5576040517f08c379a00000000000000000000000000000000000000000000000000000000081526004018080602001828103825260328152602001806135196032913960400191505060405180910390fd5b6121de81612ed8565b50565b80600060068111156121ef57fe5b60096000838152602001908152602001600020600b0160009054906101000a900460ff16600681111561221e57fe5b14612291576040517f08c379a000000000000000000000000000000000000000000000000000000000815260040180806020018281038252600b8152602001807f4e6f74206361746368656400000000000000000000000000000000000000000081525060200191505060405180910390fd5b61229a336116e9565b6122ef576040517f08c379a00000000000000000000000000000000000000000000000000000000081526004018080602001828103825260328152602001806135196032913960400191505060405180910390fd5b3360096000848152602001908152602001600020600b0160016101000a81548173ffffffffffffffffffffffffffffffffffffffff021916908373ffffffffffffffffffffffffffffffffffffffff160217905550600160096000848152602001908152602001600020600b0160006101000a81548160ff0219169083600681111561237757fe5b02179055507f3ad93af63cb7967b23e4fb500b7d7d28b07516325dcf341f88bebf959d82c1cb826040518082815260200191505060405180910390a15050565b6123c033612f32565b565b8680600960008381526020019081526020016000206001015414156123e657600080fd5b6123ef33612a3e565b612444576040517f08c379a000000000000000000000000000000000000000000000000000000000815260040180806020018281038252602f815260200180613488602f913960400191505060405180910390fd5b600854600960008a81526020019081526020016000206000018190555087600960008a81526020019081526020016000206001018190555086600960008a815260200190815260200160002060020160006101000a81548173ffffffffffffffffffffffffffffffffffffffff021916908373ffffffffffffffffffffffffffffffffffffffff16021790555086600960008a815260200190815260200160002060030160006101000a81548173ffffffffffffffffffffffffffffffffffffffff021916908373ffffffffffffffffffffffffffffffffffffffff16021790555085600960008a8152602001908152602001600020600401908051906020019061255092919061337f565b5084600960008a8152602001908152602001600020600501908051906020019061257b92919061337f565b5083600960008a815260200190815260200160002060060190805190602001906125a692919061337f565b5082600960008a815260200190815260200160002060070190805190602001906125d192919061337f565b506008548801600960008a81526020019081526020016000206008018190555081600960008a8152602001908152602001600020600901908051906020019061261b92919061337f565b506000600960008a8152602001908152602001600020600b0160006101000a81548160ff0219169083600681111561264f57fe5b02179055506001600854016008819055507f9e1dfcd7dcf52117f3268682c2a847062187f9d9641574b9ca0b125f54dceecf886040518082815260200191505060405180910390a15050505050505050565b80600560068111156126af57fe5b60096000838152602001908152602001600020600b0160009054906101000a900460ff1660068111156126de57fe5b14612751576040517f08c379a000000000000000000000000000000000000000000000000000000000815260040180806020018281038252600c8152602001807f4e6f7420666f722073616c65000000000000000000000000000000000000000081525060200191505060405180910390fd5b60096000838152602001908152602001600020600a0154803410156127de576040517f08c379a00000000000000000000000000000000000000000000000000000000081526004018080602001828103825260128152602001807f446f65736e27742070617920656e6f756768000000000000000000000000000081525060200191505060405180910390fd5b826000339050600060096000878152602001908152602001600020600a01549050816009600088815260200190815260200160002060020160006101000a81548173ffffffffffffffffffffffffffffffffffffffff021916908373ffffffffffffffffffffffffffffffffffffffff1602179055508160096000888152602001908152602001600020600e0160006101000a81548173ffffffffffffffffffffffffffffffffffffffff021916908373ffffffffffffffffffffffffffffffffffffffff160217905550600660096000888152602001908152602001600020600b0160006101000a81548160ff021916908360068111156128dc57fe5b02179055506009600087815260200190815260200160002060030160009054906101000a900473ffffffffffffffffffffffffffffffffffffffff1673ffffffffffffffffffffffffffffffffffffffff166108fc829081150290604051600060405180830381858888f1935050505015801561295d573d6000803e3d6000fd5b507f92f64ca637d023f354075a4be751b169c1a8a9ccb6d33cdd0cb3520543995727866040518082815260200191505060405180910390a15050600060096000838152602001908152602001600020600a015490506000813403905060096000848152602001908152602001600020600e0160009054906101000a900473ffffffffffffffffffffffffffffffffffffffff1673ffffffffffffffffffffffffffffffffffffffff166108fc829081150290604051600060405180830381858888f19350505050158015612a35573d6000803e3d6000fd5b50505050505050565b6000612a54826001612b0d90919063ffffffff16565b9050919050565b600660009054906101000a900473ffffffffffffffffffffffffffffffffffffffff1673ffffffffffffffffffffffffffffffffffffffff163373ffffffffffffffffffffffffffffffffffffffff1614612b01576040517f08c379a000000000000000000000000000000000000000000000000000000000815260040180806020018281038252602e8152602001806134b7602e913960400191505060405180910390fd5b612b0a81612f8c565b50565b60008073ffffffffffffffffffffffffffffffffffffffff168273ffffffffffffffffffffffffffffffffffffffff161415612bb1576040517f08c379a000000000000000000000000000000000000000000000000000000000815260040180806020018281038252600f8152602001807f496e76616c69642041646472657373000000000000000000000000000000000081525060200191505060405180910390fd5b8260000160008373ffffffffffffffffffffffffffffffffffffffff1673ffffffffffffffffffffffffffffffffffffffff16815260200190815260200160002060009054906101000a900460ff16905092915050565b612c1c81600561308490919063ffffffff16565b8073ffffffffffffffffffffffffffffffffffffffff167f28b26e7a3d20aedbc5f8f2ebf7da671c0491723a2b78f47a097b0e46dee0714260405160405180910390a250565b612c7681600261320290919063ffffffff16565b8073ffffffffffffffffffffffffffffffffffffffff167fc8ecc453f78c13ccc7596603b61935f29b99dc15bb91b91647e1ccf2469ad00a60405160405180910390a250565b612cd081600361308490919063ffffffff16565b8073ffffffffffffffffffffffffffffffffffffffff167f05c1b3ccb9c2d46f702e834ef4d1089736770e1dc99594e4eed7d32156c5809960405160405180910390a250565b612d2a81600161308490919063ffffffff16565b8073ffffffffffffffffffffffffffffffffffffffff167f547eb29a995e058ef2b8b9cfdb25282a473b60f77281686d3f1d02af788fc51560405160405180910390a250565b612d8481600361320290919063ffffffff16565b8073ffffffffffffffffffffffffffffffffffffffff167fbcd349bbef1d62ad73e4f031a0ef1fa29c49ddcd0bac9f7a86bb4a425e03222260405160405180910390a250565b612dde81600561320290919063ffffffff16565b8073ffffffffffffffffffffffffffffffffffffffff167fe3f5ed5f263f1f01764a96edfc7d025f511ec5f7d180e8816908b78bcf74f09860405160405180910390a250565b612e3881600461320290919063ffffffff16565b8073ffffffffffffffffffffffffffffffffffffffff167f126174f6cf49c81cdb4a9214c6b8f037bef55b4ec31e4fc776cea2a1c8a88d5960405160405180910390a250565b612e9281600461308490919063ffffffff16565b8073ffffffffffffffffffffffffffffffffffffffff167fddbf200aa634dc3fb81cfd68583dd1040d1c751d335e1d86b631bde3e977fea860405160405180910390a250565b612eec81600261308490919063ffffffff16565b8073ffffffffffffffffffffffffffffffffffffffff167f2860b5ba44f983f8f363ee6eeb3c24cbca3096803fbdd5129b9e253f01cac07660405160405180910390a250565b612f4681600161320290919063ffffffff16565b8073ffffffffffffffffffffffffffffffffffffffff167f80c102dd90d08f652af40e660d20aa132273b2f3d5a1c0f13c19a33c6d9abfd460405160405180910390a250565b600073ffffffffffffffffffffffffffffffffffffffff168173ffffffffffffffffffffffffffffffffffffffff161415612fc657600080fd5b8073ffffffffffffffffffffffffffffffffffffffff166000809054906101000a900473ffffffffffffffffffffffffffffffffffffffff1673ffffffffffffffffffffffffffffffffffffffff167f5c486528ec3e3f0ea91181cff8116f02bfa350e03b8b6f12e00765adbb5af85c60405160405180910390a3806000806101000a81548173ffffffffffffffffffffffffffffffffffffffff021916908373ffffffffffffffffffffffffffffffffffffffff16021790555050565b600073ffffffffffffffffffffffffffffffffffffffff168173ffffffffffffffffffffffffffffffffffffffff161415613127576040517f08c379a000000000000000000000000000000000000000000000000000000000815260040180806020018281038252600f8152602001807f496e76616c69642041646472657373000000000000000000000000000000000081525060200191505060405180910390fd5b6131318282612b0d565b156131a4576040517f08c379a00000000000000000000000000000000000000000000000000000000081526004018080602001828103825260168152602001807f4163636f756e7420616c7265616479206578697374730000000000000000000081525060200191505060405180910390fd5b60018260000160008373ffffffffffffffffffffffffffffffffffffffff1673ffffffffffffffffffffffffffffffffffffffff16815260200190815260200160002060006101000a81548160ff0219169083151502179055505050565b600073ffffffffffffffffffffffffffffffffffffffff168173ffffffffffffffffffffffffffffffffffffffff1614156132a5576040517f08c379a000000000000000000000000000000000000000000000000000000000815260040180806020018281038252600f8152602001807f496e76616c69642041646472657373000000000000000000000000000000000081525060200191505060405180910390fd5b6132af8282612b0d565b613321576040517f08c379a00000000000000000000000000000000000000000000000000000000081526004018080602001828103825260118152602001807f4163636f756e74206e6f7420666f756e6400000000000000000000000000000081525060200191505060405180910390fd5b60008260000160008373ffffffffffffffffffffffffffffffffffffffff1673ffffffffffffffffffffffffffffffffffffffff16815260200190815260200160002060006101000a81548160ff0219169083151502179055505050565b828054600181600116156101000203166002900490600052602060002090601f016020900481019282601f106133c057805160ff19168380011785556133ee565b828001600101855582156133ee579182015b828111156133ed5782518255916020019190600101906133d2565b5b5090506133fb91906133ff565b5090565b61342191905b8082111561341d576000816000905550600101613405565b5090565b9056fe596f75206e65656420746f206265206120636f6e73756d657220746f20706572666f726d207468697320616374696f6e2e596f75206e65656420746f20626520612070726f636573736f7220746f20706572666f726d207468697320616374696f6e2e596f75206e65656420746f20626520612066697368657220746f20706572666f726d207468697320616374696f6e2e596f75206e65656420746f2062652061206f776e657220746f20706572666f726d207468697320616374696f6e2e596f75206e65656420746f2062652061206469737472696275746f7220746f20706572666f726d207468697320616374696f6e2e596f75206e65656420746f206265206120726567756c61746f7220746f20706572666f726d207468697320616374696f6e2ea265627a7a7230582030793f1c46c5ac7f2ce68e87b00469ffee4f1f44b599a90711e0623eab3c9ae164736f6c634300050a0032",
  "source": "pragma solidity >=0.5.1;\n\nimport \"../tunaaccesscontrol/FisherRole.sol\";\nimport \"../tunaaccesscontrol/RegulatorRole.sol\";\nimport \"../tunaaccesscontrol/ProcessorRole.sol\";\nimport \"../tunaaccesscontrol/DistributorRole.sol\";\nimport \"../tunaaccesscontrol/ConsumerRole.sol\";\nimport \"../tunacore/Ownable.sol\";\n\n// Define a contract 'Supplychain'\ncontract SupplyChain is Ownable, FisherRole, RegulatorRole, ProcessorRole, DistributorRole, ConsumerRole {\n\n\t// Define 'owner'\n\taddress payable owner;\n\n\t// Define a variable called 'upc' for Universal Product Code (UPC)\n\tuint  upc;\n\n\t// Define a variable called 'sku' for Stock Keeping Unit (SKU)\n\tuint  sku;\n\n\t// Define a public mapping 'items' that maps the UPC to an Item.\n\tmapping(uint => Item) items;\n\n\t// Define a public mapping 'itemsHistory' that maps the UPC to an array of TxHash,\n\t// that track its journey through the supply chain -- to be sent from DApp.\n\tmapping(uint => string[]) itemsHistory;\n\n\t// Define enum 'State' with the following values:\n\tenum State\n\t{\n\t\tCatched, // 0\n\t\tApproved, // 1\n\t\tLanded, // 2\n\t\tProcessed, // 3\n\t\tPacked, // 4\n\t\tForSale, // 5\n\t\tSold // 6\n\t}\n\n\tState constant defaultState = State.Catched;\n\n\t// Define a struct 'Item' with the following fields:\n\tstruct Item {\n\t\tuint sku;  // Stock Keeping Unit (SKU)\n\t\tuint upc; // Universal Product Code (UPC), generated by the Fisher, goes on the package, can be verified by the Consumer\n\t\taddress ownerID;  // Metamask-Ethereum address of the current owner as the product moves through 8 stages\n\t\taddress payable originFisherID; // Metamask-Ethereum address of the Fisher\n\t\tstring originFisherName; // Fisher Name\n\t\tstring originFisherInformation;  // Fisher Information\n\t\tstring originFisherLatitude; // Fisher Latitude\n\t\tstring originFisherLongitude;  // Fisher Longitude\n\t\tuint productID;  // Product ID potentially a combination of upc + sku\n\t\tstring productNotes; // Product Notes\n\t\tuint productPrice; // Product Price\n\t\tState itemState;  // Product State as represented in the enum above\n\t\taddress regulatorID;  // Metamask-Ethereum address of the Regulator\n\t\taddress processorID; // Metamask-Ethereum address of the Processor\n\t\taddress distributorID; // Metamask-Ethereum address of the Distributor\n\t\taddress payable consumerID; // Metamask-Ethereum address of the Consumer\n\t}\n\n\t// Define 8 events with the same 8 state values and accept 'upc' as input argument\n\tevent Catched(uint upc);\n\tevent Approved(uint upc);\n\tevent Landed(uint upc);\n\tevent Processed(uint upc);\n\tevent Packed(uint upc);\n\tevent ForSale(uint upc);\n\tevent Sold(uint upc);\n\t//\tevent Shipped(uint upc);\n\t//\tevent Received(uint upc);\n\t//\tevent Purchased(uint upc);\n\n\t// Define a modifer that checks to see if msg.sender == owner of the contract\n\tmodifier onlyOwner() {\n\t\trequire(msg.sender == owner, 'You need to be a owner to perform this action.');\n\t\t_;\n\t}\n\n\tmodifier verifyUpc(uint _upc) {\n\t\trequire(items[_upc].upc != _upc);\n\t\t_;\n\t}\n\n\t// Define a modifer that verifies the Caller\n\tmodifier verifyCaller (address _address) {\n\t\trequire(msg.sender == _address, 'Invalid Caller.');\n\t\t_;\n\t}\n\n\t// Define a modifier that checks if the paid amount is sufficient to cover the price\n\tmodifier paidEnough(uint _price) {\n\t\trequire(msg.value >= _price, 'Doesn\\'t pay enough');\n\t\t_;\n\t}\n\n\t// Define a modifier that checks the price and refunds the remaining balance\n\tmodifier checkValue(uint _upc) {\n\t\t_;\n\t\tuint _price = items[_upc].productPrice;\n\t\tuint amountToReturn = msg.value - _price;\n\t\titems[_upc].consumerID.transfer(amountToReturn);\n\t}\n\n\t// Define a modifier that checks if an item.state of a upc is Catched\n\tmodifier catched(uint _upc) {\n\t\trequire(items[_upc].itemState == State.Catched, 'Not catched');\n\t\t_;\n\t}\n\n\t// Define a modifier that checks if an item.state of a upc is Approved\n\tmodifier approved(uint _upc) {\n\t\trequire(items[_upc].itemState == State.Approved, 'Not approved');\n\t\t_;\n\t}\n\n\t// Define a modifier that checks if an item.state of a upc is Landed\n\tmodifier landed(uint _upc) {\n\t\trequire(items[_upc].itemState == State.Landed, 'Not landed');\n\t\t_;\n\t}\n\n\t// Define a modifier that checks if an item.state of a upc is Processed\n\tmodifier processed(uint _upc) {\n\t\trequire(items[_upc].itemState == State.Processed, 'Not processed');\n\t\t_;\n\t}\n\n\t// Define a modifier that checks if an item.state of a upc is Packed\n\tmodifier packed(uint _upc) {\n\t\trequire(items[_upc].itemState == State.Packed, 'Not packed');\n\t\t_;\n\t}\n\n\t// Define a modifier that checks if an item.state of a upc is ForSale\n\tmodifier forSale(uint _upc) {\n\t\trequire(items[_upc].itemState == State.ForSale, 'Not for sale');\n\t\t_;\n\t}\n\n\t// Define a modifier that checks if an item.state of a upc is Sold\n\tmodifier sold(uint _upc) {\n\t\trequire(items[_upc].itemState == State.Sold, 'Not sold');\n\t\t_;\n\t}\n\n\t// In the constructor set 'owner' to the address that instantiated the contract\n\t// and set 'sku' to 1\n\t// and set 'upc' to 1\n\tconstructor() public payable {\n\t\towner = msg.sender;\n\t\tsku = 1;\n\t\tupc = 1;\n\t}\n\n\t// Define a function 'kill' if required\n\tfunction kill() public {\n\t\tif (msg.sender == owner) {\n\t\t\tselfdestruct(owner);\n\t\t}\n\t}\n\n\t// Define a function 'catchFish' that allows a fisher to mark an item 'Catched'\n\tfunction catchFish(\n\t\tuint _upc,\n\t\taddress payable _originFisherID,\n\t\tstring memory _originFisherName,\n\t\tstring memory _originFisherInformation,\n\t\tstring memory _originFisherLatitude,\n\t\tstring memory _originFisherLongitude,\n\t\tstring memory _productNotes\n\t) verifyUpc(_upc) onlyFisher() public\n\t{\n\t\t// Add the new item as part of Catch\n\t\titems[_upc].sku = sku;\n\t\titems[_upc].upc = _upc;\n\t\titems[_upc].ownerID = _originFisherID;\n\t\titems[_upc].originFisherID = _originFisherID;\n\t\titems[_upc].originFisherName = _originFisherName;\n\t\titems[_upc].originFisherInformation = _originFisherInformation;\n\t\titems[_upc].originFisherLatitude = _originFisherLatitude;\n\t\titems[_upc].originFisherLongitude = _originFisherLongitude;\n\t\titems[_upc].productID = _upc + sku;\n\t\titems[_upc].productNotes = _productNotes;\n\t\titems[_upc].itemState = State.Catched;\n\n\t\t// Increment sku\n\t\tsku = sku + 1;\n\t\t// Emit the appropriate event\n\t\temit Catched(_upc);\n\t}\n\n\t// Define a function 'approve' that allows a regulator to mark an item 'Approved'\n\tfunction approve(uint _upc) catched(_upc) onlyRegulator() public\n\t{\n\t\titems[_upc].regulatorID = msg.sender;\n\t\titems[_upc].itemState = State.Approved;\n\n\t\temit Approved(_upc);\n\t}\n\n\t// Define a function 'landFish' that allows a fisher to mark an item 'Landed'\n\tfunction landFish(uint _upc) approved(_upc) onlyFisher() public\n\t{\n\t\titems[_upc].itemState = State.Landed;\n\n\t\temit Landed(_upc);\n\t}\n\n\t// Define a function 'processFish' that allows a processor to mark an item 'Processed'\n\tfunction processFish(uint _upc) landed(_upc) onlyProcessor() public {\n\t\titems[_upc].processorID = msg.sender;\n\t\titems[_upc].itemState = State.Processed;\n\n\t\temit Processed(_upc);\n\t}\n\n\t// Define a function 'packFish' that allows a processor to mark an item 'Packed'\n\tfunction packFish(uint _upc) processed(_upc) onlyProcessor() public {\n\t\titems[_upc].processorID = msg.sender;\n\t\titems[_upc].itemState = State.Packed;\n\n\t\temit Packed(_upc);\n\t}\n\n\t// Define a function 'sellFish' that allows a distributor to mark an item 'ForSale'\n\tfunction sellFish(uint _upc, uint _price) packed(_upc) onlyDistributor() public\n\t{\n\t\titems[_upc].distributorID = msg.sender;\n\t\titems[_upc].productPrice = _price;\n\t\titems[_upc].itemState = State.ForSale;\n\n\t\temit ForSale(_upc);\n\n\t}\n\n\t// Define a function 'buyItem' that allows the disributor to mark an item 'Sold'\n\t// Use the above defined modifiers to check if the item is available for sale, if the buyer has paid enough,\n\t// and any excess ether sent is refunded back to the buyer\n\tfunction buyItem(uint _upc) forSale(_upc) paidEnough(items[_upc].productPrice) checkValue(_upc) public payable {\n\t\taddress payable consumer = msg.sender;\n\t\tuint price = items[_upc].productPrice;\n\n\t\t// Update the appropriate fields - ownerID, itemState\n\t\titems[_upc].ownerID = consumer;\n\t\titems[_upc].consumerID = consumer;\n\t\titems[_upc].itemState = State.Sold;\n\n\t\t// Transfer money to farmer\n\t\titems[_upc].originFisherID.transfer(price);\n\n\t\t// emit the appropriate event\n\t\temit Sold(_upc);\n\t}\n\n\t// Define a function 'fetchItemBufferOne' that fetches the data\n\tfunction fetchItemBufferOne(uint _upc) public view returns\n\t(\n\t\tuint itemSKU,\n\t\tuint itemUPC,\n\t\taddress ownerID,\n\t\taddress originFisherID,\n\t\tstring memory originFisherName,\n\t\tstring memory originFisherInformation,\n\t\tstring memory originFisherLatitude,\n\t\tstring memory originFisherLongitude\n\t)\n\t{\n\t\t// Assign values to the 8 parameters\n\t\titemSKU = items[_upc].sku;\n\t\titemUPC = items[_upc].upc;\n\t\townerID = items[_upc].ownerID;\n\t\toriginFisherID = items[_upc].originFisherID;\n\t\toriginFisherName = items[_upc].originFisherName;\n\t\toriginFisherInformation = items[_upc].originFisherInformation;\n\t\toriginFisherLatitude = items[_upc].originFisherLatitude;\n\t\toriginFisherLongitude = items[_upc].originFisherLongitude;\n\n\t\treturn\n\t\t(\n\t\titemSKU,\n\t\titemUPC,\n\t\townerID,\n\t\toriginFisherID,\n\t\toriginFisherName,\n\t\toriginFisherInformation,\n\t\toriginFisherLatitude,\n\t\toriginFisherLongitude\n\t\t);\n\t}\n\n\t// Define a function 'fetchItemBufferTwo' that fetches the data\n\tfunction fetchItemBufferTwo(uint _upc) public view returns\n\t(\n\t\tuint itemSKU,\n\t\tuint itemUPC,\n\t\tuint productID,\n\t\tstring memory productNotes,\n\t\tuint productPrice,\n\t\tuint itemState,\n\t\taddress distributorID,\n\t\taddress consumerID,\n\t\taddress regulatorID,\n\t\taddress processorID\n\t)\n\t{\n\t\t// Assign values to the 8 parameters\n\t\titemSKU = items[_upc].sku;\n\t\titemUPC = items[_upc].upc;\n\t\tproductID = items[_upc].productID;\n\t\tproductNotes = items[_upc].productNotes;\n\t\tproductPrice = items[_upc].productPrice;\n\t\titemState = uint(items[_upc].itemState);\n\t\tdistributorID = items[_upc].distributorID;\n\t\tconsumerID = items[_upc].consumerID;\n\t\tregulatorID = items[_upc].regulatorID;\n\t\tprocessorID = items[_upc].processorID;\n\n\t\treturn\n\t\t(\n\t\titemSKU,\n\t\titemUPC,\n\t\tproductID,\n\t\tproductNotes,\n\t\tproductPrice,\n\t\titemState,\n\t\tdistributorID,\n\t\tconsumerID,\n\t\tregulatorID,\n\t\tprocessorID\n\t\t);\n\t}\n}\n",
  "sourcePath": "/home/greg/Documentos/Udacity/Blockchain/supply-chain/contracts/tunabase/SupplyChain.sol",
  "compiler": {
    "name": "solc",
    "version": "0.5.10+commit.5a6ea5b1.Emscripten.clang"
  },
  "schemaVersion": "3.0.11",
  "updatedAt": "2019-07-14T08:01:33.245Z",
  "devdoc": {
    "methods": {}
  },
  "userdoc": {
    "methods": {
      "getOwner()": {
        "notice": "Look up the address of the owner"
      },
      "isOwner()": {
        "notice": "Check if the calling address is the owner of the contract"
      },
      "renounceOwnership()": {
        "notice": "Define a function to renounce ownerhip"
      },
      "transferOwnership(address)": {
        "notice": "Define a public function to transfer ownership"
      }
    }
  }
}