{
  "contractName": "SupplyChain",
  "abi": [
    {
      "inputs": [],
      "payable": true,
      "stateMutability": "payable",
      "type": "constructor",
      "signature": "constructor"
    },
    {
      "anonymous": false,
      "inputs": [
        {
          "indexed": false,
          "name": "upc",
          "type": "uint256"
        }
      ],
      "name": "Harvested",
      "type": "event",
      "signature": "0x8e55ccfc9778ff8eba1646d765cf1982537ce0f9257054a17b48aad745250183"
    },
    {
      "anonymous": false,
      "inputs": [
        {
          "indexed": false,
          "name": "upc",
          "type": "uint256"
        }
      ],
      "name": "Processed",
      "type": "event",
      "signature": "0x5afe3b1bf87069693c075da5c22a98d63d1aef98a30dbbe538d0781a98b77ee5"
    },
    {
      "anonymous": false,
      "inputs": [
        {
          "indexed": false,
          "name": "upc",
          "type": "uint256"
        }
      ],
      "name": "Packed",
      "type": "event",
      "signature": "0x9b3b66e2380b690bae22c73ef1428fb0c91e72fe14a4b6defa13035214187aff"
    },
    {
      "anonymous": false,
      "inputs": [
        {
          "indexed": false,
          "name": "upc",
          "type": "uint256"
        }
      ],
      "name": "ForSale",
      "type": "event",
      "signature": "0xa96ae0fc3224ebd79eebfe54bd130cc9cb94416cddd1f2386115e00b72532468"
    },
    {
      "anonymous": false,
      "inputs": [
        {
          "indexed": false,
          "name": "upc",
          "type": "uint256"
        }
      ],
      "name": "Sold",
      "type": "event",
      "signature": "0x92f64ca637d023f354075a4be751b169c1a8a9ccb6d33cdd0cb3520543995727"
    },
    {
      "anonymous": false,
      "inputs": [
        {
          "indexed": false,
          "name": "upc",
          "type": "uint256"
        }
      ],
      "name": "Shipped",
      "type": "event",
      "signature": "0xf00b9a5725b80c54016f42114f6ed7792d22eecb116011c4afac29c57bef6c95"
    },
    {
      "anonymous": false,
      "inputs": [
        {
          "indexed": false,
          "name": "upc",
          "type": "uint256"
        }
      ],
      "name": "Received",
      "type": "event",
      "signature": "0xa8142743f8f70a4c26f3691cf4ed59718381fb2f18070ec52be1f1022d855557"
    },
    {
      "anonymous": false,
      "inputs": [
        {
          "indexed": false,
          "name": "upc",
          "type": "uint256"
        }
      ],
      "name": "Purchased",
      "type": "event",
      "signature": "0x653d56639fee6b566a5c804764e9689de38645f0b733df89a36a1b7b42173dd8"
    },
    {
      "constant": false,
      "inputs": [],
      "name": "kill",
      "outputs": [],
      "payable": false,
      "stateMutability": "nonpayable",
      "type": "function",
      "signature": "0x41c0e1b5"
    },
    {
      "constant": false,
      "inputs": [
        {
          "name": "_upc",
          "type": "uint256"
        },
        {
          "name": "_originFarmerID",
          "type": "address"
        },
        {
          "name": "_originFarmName",
          "type": "string"
        },
        {
          "name": "_originFarmInformation",
          "type": "string"
        },
        {
          "name": "_originFarmLatitude",
          "type": "string"
        },
        {
          "name": "_originFarmLongitude",
          "type": "string"
        },
        {
          "name": "_productNotes",
          "type": "string"
        }
      ],
      "name": "harvestItem",
      "outputs": [],
      "payable": false,
      "stateMutability": "nonpayable",
      "type": "function",
      "signature": "0xbdd8a6a8"
    },
    {
      "constant": false,
      "inputs": [
        {
          "name": "_upc",
          "type": "uint256"
        }
      ],
      "name": "processItem",
      "outputs": [],
      "payable": false,
      "stateMutability": "nonpayable",
      "type": "function",
      "signature": "0x49dae766"
    },
    {
      "constant": false,
      "inputs": [
        {
          "name": "_upc",
          "type": "uint256"
        }
      ],
      "name": "packItem",
      "outputs": [],
      "payable": false,
      "stateMutability": "nonpayable",
      "type": "function",
      "signature": "0xf30fc480"
    },
    {
      "constant": false,
      "inputs": [
        {
          "name": "_upc",
          "type": "uint256"
        },
        {
          "name": "_price",
          "type": "uint256"
        }
      ],
      "name": "sellItem",
      "outputs": [],
      "payable": false,
      "stateMutability": "nonpayable",
      "type": "function",
      "signature": "0x2d923561"
    },
    {
      "constant": false,
      "inputs": [
        {
          "name": "_upc",
          "type": "uint256"
        }
      ],
      "name": "buyItem",
      "outputs": [],
      "payable": true,
      "stateMutability": "payable",
      "type": "function",
      "signature": "0xe7fb74c7"
    },
    {
      "constant": false,
      "inputs": [
        {
          "name": "_upc",
          "type": "uint256"
        }
      ],
      "name": "shipItem",
      "outputs": [],
      "payable": false,
      "stateMutability": "nonpayable",
      "type": "function",
      "signature": "0xf61c899a"
    },
    {
      "constant": false,
      "inputs": [
        {
          "name": "_upc",
          "type": "uint256"
        }
      ],
      "name": "receiveItem",
      "outputs": [],
      "payable": false,
      "stateMutability": "nonpayable",
      "type": "function",
      "signature": "0xa26be999"
    },
    {
      "constant": false,
      "inputs": [
        {
          "name": "_upc",
          "type": "uint256"
        }
      ],
      "name": "purchaseItem",
      "outputs": [],
      "payable": false,
      "stateMutability": "nonpayable",
      "type": "function",
      "signature": "0xd38ea5bf"
    },
    {
      "constant": true,
      "inputs": [
        {
          "name": "_upc",
          "type": "uint256"
        }
      ],
      "name": "fetchItemBufferOne",
      "outputs": [
        {
          "name": "itemSKU",
          "type": "uint256"
        },
        {
          "name": "itemUPC",
          "type": "uint256"
        },
        {
          "name": "ownerID",
          "type": "address"
        },
        {
          "name": "originFarmerID",
          "type": "address"
        },
        {
          "name": "originFarmName",
          "type": "string"
        },
        {
          "name": "originFarmInformation",
          "type": "string"
        },
        {
          "name": "originFarmLatitude",
          "type": "string"
        },
        {
          "name": "originFarmLongitude",
          "type": "string"
        }
      ],
      "payable": false,
      "stateMutability": "view",
      "type": "function",
      "signature": "0x77c45913"
    },
    {
      "constant": true,
      "inputs": [
        {
          "name": "_upc",
          "type": "uint256"
        }
      ],
      "name": "fetchItemBufferTwo",
      "outputs": [
        {
          "name": "itemSKU",
          "type": "uint256"
        },
        {
          "name": "itemUPC",
          "type": "uint256"
        },
        {
          "name": "productID",
          "type": "uint256"
        },
        {
          "name": "productNotes",
          "type": "string"
        },
        {
          "name": "productPrice",
          "type": "uint256"
        },
        {
          "name": "itemState",
          "type": "uint256"
        },
        {
          "name": "distributorID",
          "type": "address"
        },
        {
          "name": "retailerID",
          "type": "address"
        },
        {
          "name": "consumerID",
          "type": "address"
        }
      ],
      "payable": false,
      "stateMutability": "view",
      "type": "function",
      "signature": "0x66225ff9"
    }
  ],
  "bytecode": "0x6080604052336000806101000a81548173ffffffffffffffffffffffffffffffffffffffff021916908373ffffffffffffffffffffffffffffffffffffffff160217905550600160028190555060018081905550610af0806100626000396000f3fe6080604052600436106100b9576000357c010000000000000000000000000000000000000000000000000000000090048063a26be99911610081578063a26be99914610531578063bdd8a6a81461056c578063d38ea5bf146108ba578063e7fb74c7146108f5578063f30fc48014610923578063f61c899a1461095e576100b9565b80632d923561146100be57806341c0e1b51461010357806349dae7661461011a57806366225ff91461015557806377c45913146102c5575b600080fd5b3480156100ca57600080fd5b50610101600480360360408110156100e157600080fd5b810190808035906020019092919080359060200190929190505050610999565b005b34801561010f57600080fd5b5061011861099d565b005b34801561012657600080fd5b506101536004803603602081101561013d57600080fd5b8101908080359060200190929190505050610a2e565b005b34801561016157600080fd5b5061018e6004803603602081101561017857600080fd5b8101908080359060200190929190505050610a31565b604051808a8152602001898152602001888152602001806020018781526020018681526020018573ffffffffffffffffffffffffffffffffffffffff1673ffffffffffffffffffffffffffffffffffffffff1681526020018473ffffffffffffffffffffffffffffffffffffffff1673ffffffffffffffffffffffffffffffffffffffff1681526020018373ffffffffffffffffffffffffffffffffffffffff1673ffffffffffffffffffffffffffffffffffffffff168152602001828103825288818151815260200191508051906020019080838360005b83811015610282578082015181840152602081019050610267565b50505050905090810190601f1680156102af5780820380516001836020036101000a031916815260200191505b509a505050505050505050505060405180910390f35b3480156102d157600080fd5b506102fe600480360360208110156102e857600080fd5b8101908080359060200190929190505050610a68565b604051808981526020018881526020018773ffffffffffffffffffffffffffffffffffffffff1673ffffffffffffffffffffffffffffffffffffffff1681526020018673ffffffffffffffffffffffffffffffffffffffff1673ffffffffffffffffffffffffffffffffffffffff16815260200180602001806020018060200180602001858103855289818151815260200191508051906020019080838360005b838110156103ba57808201518184015260208101905061039f565b50505050905090810190601f1680156103e75780820380516001836020036101000a031916815260200191505b50858103845288818151815260200191508051906020019080838360005b83811015610420578082015181840152602081019050610405565b50505050905090810190601f16801561044d5780820380516001836020036101000a031916815260200191505b50858103835287818151815260200191508051906020019080838360005b8381101561048657808201518184015260208101905061046b565b50505050905090810190601f1680156104b35780820380516001836020036101000a031916815260200191505b50858103825286818151815260200191508051906020019080838360005b838110156104ec5780820151818401526020810190506104d1565b50505050905090810190601f1680156105195780820380516001836020036101000a031916815260200191505b509c5050505050505050505050505060405180910390f35b34801561053d57600080fd5b5061056a6004803603602081101561055457600080fd5b8101908080359060200190929190505050610a97565b005b34801561057857600080fd5b506108b8600480360360e081101561058f57600080fd5b8101908080359060200190929190803573ffffffffffffffffffffffffffffffffffffffff169060200190929190803590602001906401000000008111156105d657600080fd5b8201836020820111156105e857600080fd5b8035906020019184600183028401116401000000008311171561060a57600080fd5b91908080601f016020809104026020016040519081016040528093929190818152602001838380828437600081840152601f19601f8201169050808301925050505050505091929192908035906020019064010000000081111561066d57600080fd5b82018360208201111561067f57600080fd5b803590602001918460018302840111640100000000831117156106a157600080fd5b91908080601f016020809104026020016040519081016040528093929190818152602001838380828437600081840152601f19601f8201169050808301925050505050505091929192908035906020019064010000000081111561070457600080fd5b82018360208201111561071657600080fd5b8035906020019184600183028401116401000000008311171561073857600080fd5b91908080601f016020809104026020016040519081016040528093929190818152602001838380828437600081840152601f19601f8201169050808301925050505050505091929192908035906020019064010000000081111561079b57600080fd5b8201836020820111156107ad57600080fd5b803590602001918460018302840111640100000000831117156107cf57600080fd5b91908080601f016020809104026020016040519081016040528093929190818152602001838380828437600081840152601f19601f8201169050808301925050505050505091929192908035906020019064010000000081111561083257600080fd5b82018360208201111561084457600080fd5b8035906020019184600183028401116401000000008311171561086657600080fd5b91908080601f016020809104026020016040519081016040528093929190818152602001838380828437600081840152601f19601f820116905080830192505050505050509192919290505050610a9a565b005b3480156108c657600080fd5b506108f3600480360360208110156108dd57600080fd5b8101908080359060200190929190505050610aaf565b005b6109216004803603602081101561090b57600080fd5b8101908080359060200190929190505050610ab2565b005b34801561092f57600080fd5b5061095c6004803603602081101561094657600080fd5b8101908080359060200190929190505050610ab5565b005b34801561096a57600080fd5b506109976004803603602081101561098157600080fd5b8101908080359060200190929190505050610ab8565b005b5050565b6000809054906101000a900473ffffffffffffffffffffffffffffffffffffffff1673ffffffffffffffffffffffffffffffffffffffff163373ffffffffffffffffffffffffffffffffffffffff161415610a2c576000809054906101000a900473ffffffffffffffffffffffffffffffffffffffff1673ffffffffffffffffffffffffffffffffffffffff16ff5b565b50565b6000806000606060008060008060008888888888888888889850985098509850985098509850985098509193959799909294969850565b600080600080606080606080878787878787878797509750975097509750975097509750919395975091939597565b50565b60016002540160028190555050505050505050565b50565b50565b50565b5056fea265627a7a72305820d86e51aec0c08c6b7ef511237af31bf5b978b2d83aa3654ffe23aca0c14144e864736f6c634300050a0032",
  "source": "pragma solidity >=0.5.1;\n// Define a contract 'Supplychain'\ncontract SupplyChain {\n\n\t// Define 'owner'\n\taddress payable owner;\n\n\t// Define a variable called 'upc' for Universal Product Code (UPC)\n\tuint  upc;\n\n\t// Define a variable called 'sku' for Stock Keeping Unit (SKU)\n\tuint  sku;\n\n\t// Define a public mapping 'items' that maps the UPC to an Item.\n\tmapping(uint => Item) items;\n\n\t// Define a public mapping 'itemsHistory' that maps the UPC to an array of TxHash,\n\t// that track its journey through the supply chain -- to be sent from DApp.\n\tmapping(uint => string[]) itemsHistory;\n\n\t// Define enum 'State' with the following values:\n\tenum State\n\t{\n\t\tCached, // 0\n\t\tApproved, // 1\n\t\tLanded, // 2\n\t\tProcessed, // 3\n\t\tPacked, // 4\n\t\tExposed, // 5\n\t\tSold // 6\n\t}\n\n\tState constant defaultState = State.Cached;\n\n\t// Define a struct 'Item' with the following fields:\n\tstruct Item {\n\t\tuint sku;  // Stock Keeping Unit (SKU)\n\t\tuint upc; // Universal Product Code (UPC), generated by the Farmer, goes on the package, can be verified by the Consumer\n\t\taddress ownerID;  // Metamask-Ethereum address of the current owner as the product moves through 8 stages\n\t\taddress originFarmerID; // Metamask-Ethereum address of the Farmer\n\t\tstring originFarmName; // Farmer Name\n\t\tstring originFarmInformation;  // Farmer Information\n\t\tstring originFarmLatitude; // Farm Latitude\n\t\tstring originFarmLongitude;  // Farm Longitude\n\t\tuint productID;  // Product ID potentially a combination of upc + sku\n\t\tstring productNotes; // Product Notes\n\t\tuint productPrice; // Product Price\n\t\tState itemState;  // Product State as represented in the enum above\n\t\taddress distributorID;  // Metamask-Ethereum address of the Distributor\n\t\taddress retailerID; // Metamask-Ethereum address of the Retailer\n\t\taddress payable consumerID; // Metamask-Ethereum address of the Consumer\n\t}\n\n\t// Define 8 events with the same 8 state values and accept 'upc' as input argument\n\tevent Harvested(uint upc);\n\tevent Processed(uint upc);\n\tevent Packed(uint upc);\n\tevent ForSale(uint upc);\n\tevent Sold(uint upc);\n\tevent Shipped(uint upc);\n\tevent Received(uint upc);\n\tevent Purchased(uint upc);\n\n\t// Define a modifer that checks to see if msg.sender == owner of the contract\n\tmodifier onlyOwner() {\n\t\trequire(msg.sender == owner);\n\t\t_;\n\t}\n\n\t// Define a modifer that verifies the Caller\n\tmodifier verifyCaller (address _address) {\n\t\trequire(msg.sender == _address);\n\t\t_;\n\t}\n\n\t// Define a modifier that checks if the paid amount is sufficient to cover the price\n\tmodifier paidEnough(uint _price) {\n\t\trequire(msg.value >= _price);\n\t\t_;\n\t}\n\n\t// Define a modifier that checks the price and refunds the remaining balance\n\tmodifier checkValue(uint _upc) {\n\t\t_;\n\t\tuint _price = items[_upc].productPrice;\n\t\tuint amountToReturn = msg.value - _price;\n\t\titems[_upc].consumerID.transfer(amountToReturn);\n\t}\n\n\t// Define a modifier that checks if an item.state of a upc is Harvested\n\tmodifier harvested(uint _upc) {\n\t\trequire(items[_upc].itemState == State.Cached);\n\t\t_;\n\t}\n\n\t// Define a modifier that checks if an item.state of a upc is Processed\n\tmodifier processed(uint _upc) {\n\n\t\t_;\n\t}\n\n\t// Define a modifier that checks if an item.state of a upc is Packed\n\tmodifier packed(uint _upc) {\n\n\t\t_;\n\t}\n\n\t// Define a modifier that checks if an item.state of a upc is ForSale\n\tmodifier forSale(uint _upc) {\n\n\t\t_;\n\t}\n\n\t// Define a modifier that checks if an item.state of a upc is Sold\n\tmodifier sold(uint _upc) {\n\n\t\t_;\n\t}\n\n\t// Define a modifier that checks if an item.state of a upc is Shipped\n\tmodifier shipped(uint _upc) {\n\n\t\t_;\n\t}\n\n\t// Define a modifier that checks if an item.state of a upc is Received\n\tmodifier received(uint _upc) {\n\n\t\t_;\n\t}\n\n\t// Define a modifier that checks if an item.state of a upc is Purchased\n\tmodifier purchased(uint _upc) {\n\n\t\t_;\n\t}\n\n\t// In the constructor set 'owner' to the address that instantiated the contract\n\t// and set 'sku' to 1\n\t// and set 'upc' to 1\n\tconstructor() public payable {\n\t\towner = msg.sender;\n\t\tsku = 1;\n\t\tupc = 1;\n\t}\n\n\t// Define a function 'kill' if required\n\tfunction kill() public {\n\t\tif (msg.sender == owner) {\n\t\t\tselfdestruct(owner);\n\t\t}\n\t}\n\n\t// Define a function 'harvestItem' that allows a farmer to mark an item 'Harvested'\n\tfunction harvestItem(uint _upc, address _originFarmerID, string memory _originFarmName, string memory _originFarmInformation, string  memory _originFarmLatitude, string  memory _originFarmLongitude, string  memory _productNotes) public\n\t{\n\t\t// Add the new item as part of Harvest\n\n\t\t// Increment sku\n\t\tsku = sku + 1;\n\t\t// Emit the appropriate event\n\n\t}\n\n\t// Define a function 'processtItem' that allows a farmer to mark an item 'Processed'\n\tfunction processItem(uint _upc) public\n\t\t// Call modifier to check if upc has passed previous supply chain stage\n\n\t\t// Call modifier to verify caller of this function\n\n\t{\n\t\t// Update the appropriate fields\n\n\t\t// Emit the appropriate event\n\n\t}\n\n\t// Define a function 'packItem' that allows a farmer to mark an item 'Packed'\n\tfunction packItem(uint _upc) public\n\t\t// Call modifier to check if upc has passed previous supply chain stage\n\n\t\t// Call modifier to verify caller of this function\n\n\t{\n\t\t// Update the appropriate fields\n\n\t\t// Emit the appropriate event\n\n\t}\n\n\t// Define a function 'sellItem' that allows a farmer to mark an item 'ForSale'\n\tfunction sellItem(uint _upc, uint _price) public\n\t\t// Call modifier to check if upc has passed previous supply chain stage\n\n\t\t// Call modifier to verify caller of this function\n\n\t{\n\t\t// Update the appropriate fields\n\n\t\t// Emit the appropriate event\n\n\t}\n\n\t// Define a function 'buyItem' that allows the disributor to mark an item 'Sold'\n\t// Use the above defined modifiers to check if the item is available for sale, if the buyer has paid enough,\n\t// and any excess ether sent is refunded back to the buyer\n\tfunction buyItem(uint _upc) public payable\n\t\t// Call modifier to check if upc has passed previous supply chain stage\n\n\t\t// Call modifer to check if buyer has paid enough\n\n\t\t// Call modifer to send any excess ether back to buyer\n\n\t{\n\n\t\t// Update the appropriate fields - ownerID, distributorID, itemState\n\n\t\t// Transfer money to farmer\n\n\t\t// emit the appropriate event\n\n\t}\n\n\t// Define a function 'shipItem' that allows the distributor to mark an item 'Shipped'\n\t// Use the above modifers to check if the item is sold\n\tfunction shipItem(uint _upc) public\n\t\t// Call modifier to check if upc has passed previous supply chain stage\n\n\t\t// Call modifier to verify caller of this function\n\n\t{\n\t\t// Update the appropriate fields\n\n\t\t// Emit the appropriate event\n\n\t}\n\n\t// Define a function 'receiveItem' that allows the retailer to mark an item 'Received'\n\t// Use the above modifiers to check if the item is shipped\n\tfunction receiveItem(uint _upc) public\n\t\t// Call modifier to check if upc has passed previous supply chain stage\n\n\t\t// Access Control List enforced by calling Smart Contract / DApp\n\t{\n\t\t// Update the appropriate fields - ownerID, retailerID, itemState\n\n\t\t// Emit the appropriate event\n\n\t}\n\n\t// Define a function 'purchaseItem' that allows the consumer to mark an item 'Purchased'\n\t// Use the above modifiers to check if the item is received\n\tfunction purchaseItem(uint _upc) public\n\t\t// Call modifier to check if upc has passed previous supply chain stage\n\n\t\t// Access Control List enforced by calling Smart Contract / DApp\n\t{\n\t\t// Update the appropriate fields - ownerID, consumerID, itemState\n\n\t\t// Emit the appropriate event\n\n\t}\n\n\t// Define a function 'fetchItemBufferOne' that fetches the data\n\tfunction fetchItemBufferOne(uint _upc) public view returns\n\t(\n\t\tuint itemSKU,\n\t\tuint itemUPC,\n\t\taddress ownerID,\n\t\taddress originFarmerID,\n\t\tstring memory originFarmName,\n\t\tstring memory originFarmInformation,\n\t\tstring memory originFarmLatitude,\n\t\tstring memory originFarmLongitude\n\t)\n\t{\n\t\t// Assign values to the 8 parameters\n\n\t\treturn\n\t\t(\n\t\titemSKU,\n\t\titemUPC,\n\t\townerID,\n\t\toriginFarmerID,\n\t\toriginFarmName,\n\t\toriginFarmInformation,\n\t\toriginFarmLatitude,\n\t\toriginFarmLongitude\n\t\t);\n\t}\n\n\t// Define a function 'fetchItemBufferTwo' that fetches the data\n\tfunction fetchItemBufferTwo(uint _upc) public view returns\n\t(\n\t\tuint itemSKU,\n\t\tuint itemUPC,\n\t\tuint productID,\n\t\tstring memory productNotes,\n\t\tuint productPrice,\n\t\tuint itemState,\n\t\taddress distributorID,\n\t\taddress retailerID,\n\t\taddress consumerID\n\t)\n\t{\n\t\t// Assign values to the 9 parameters\n\n\n\t\treturn\n\t\t(\n\t\titemSKU,\n\t\titemUPC,\n\t\tproductID,\n\t\tproductNotes,\n\t\tproductPrice,\n\t\titemState,\n\t\tdistributorID,\n\t\tretailerID,\n\t\tconsumerID\n\t\t);\n\t}\n}\n",
  "sourcePath": "/Users/gregalmeida/Documents/Projetos/udacity/supply-chain/contracts/coffeebase/SupplyChain.sol",
  "compiler": {
    "name": "solc",
    "version": "0.5.10+commit.5a6ea5b1.Emscripten.clang"
  },
  "schemaVersion": "3.0.1",
  "updatedAt": "2019-07-05T10:14:46.450Z",
  "devdoc": {
    "methods": {}
  },
  "userdoc": {
    "methods": {}
  }
}